:020000040800F2
:1000000000500020D56100081D6200081D62000834
:100010001D6200081D6200081D620008000000004B
:10002000000000000000000000000000C101000806
:100030001D62000800000000D90300082704000822
:100040001D6200081D6200081D6200081D62000894
:100050001D6200081D6200081D6200081D62000884
:100060001D6200081D6200081D6200081D62000874
:100070001D6200081D6200081D6200081D62000864
:100080001D6200081D6200081D6200081D62000854
:100090001D6200081D6200081D6200081D62000844
:1000A0001D620008890C00081D6200081D6200081E
:1000B0001D6200081D6200081D6200081D62000824
:1000C0001D6200081D6200081D6200081D62000814
:1000D0001D6200081D6200081D6200081D62000804
:1000E0001D6200081D6200081D620008000000007B
:1000F0000000000000000000000000000000000000
:0C01000000000000000000005FF808F1A3
:1001100080B485B000AFF860B9607A60FB68043BDA
:10012000FB60FB684FF080721A60FB68043BFB6069
:10013000BB6823F00102FB681A60FB68043BFB60AC
:10014000084AFB681A60FB68143BFB607A68FB682E
:100150001A60FB68203BFB60FB6818461437BD46FD
:1001600080BC70476901000880B485B000AF0023EF
:100170007B60124B1B68B3F1FF3F0BD04FF0500375
:1001800083F31188BFF36F8FBFF34F8FFB6000BF06
:1001900000BFFDE74FF0500383F31188BFF36F8F6B
:1001A000BFF34F8FBB6000BF00BF7B68002BFCD04C
:1001B00000BF00BF1437BD4680BC70470000002060
:1001C000074B19680868B0E8F00F80F30988BFF39F
:1001D0006F8F4FF0000080F311884EF00D0E7047C6
:1001E0002C13002000BF06480068006880F30888D0
:1001F00062B661B6BFF34F8FBFF36F8F00DF00BFF2
:1002000008ED00E000BF80B584B000AF324BFB606A
:10021000FB681B78DBB27B60FB68FF221A70FB680F
:100220001B78DBB2FB70FB78DBB203F05003DAB271
:100230002A4B1A702A4B07221A6009E0284B1B68C8
:10024000013B274A1360FB78DBB25B00DBB2FB703B
:10025000FB78DBB203F08003802BEFD0204B1B68D0
:10026000C3F10703042B0BD04FF0500383F3118825
:10027000BFF36F8FBFF34F8FBB6000BF00BFFDE7C1
:10028000174B1B681B02164A1360154B1B6803F4BF
:10029000E063134A13607B68DAB2FB681A70114B93
:1002A0001B68104A43F4700313600E4B1B680D4A21
:1002B00043F07043136000F0D9F80B4B00221A6032
:1002C000FFF791FF03F0C6FBFFF74EFF0023184630
:1002D0001037BD4680BD00BF00E400E010000020E4
:1002E0001400002020ED00E00000002080B483B066
:1002F00000AF0B4B1B68B3F57A7F0BD04FF0500368
:1003000083F31188BFF36F8FBFF34F8F7B6000BF04
:1003100000BFFDE700BF0C37BD4680BC704700BF83
:100320000000002080B483B000AF4FF0500383F38F
:100330001188BFF36F8FBFF34F8F7B6000BF0F4BF0
:100340001B6801330D4A13600C4B1B68012B10D145
:100350000B4B1B68DBB2002B0BD04FF0500383F329
:100360001188BFF36F8FBFF34F8F3B6000BF00BF9B
:10037000FDE700BF0C37BD4680BC70470000002081
:1003800004ED00E080B483B000AF124B1B68002B7B
:100390000BD14FF0500383F31188BFF36F8FBFF37E
:1003A0004F8F7B6000BF00BFFDE70A4B1B68013B1E
:1003B000084A1360074B1B68002B05D100233B60E4
:1003C0003B6883F3118800BF00BF0C37BD4680BC7B
:1003D000704700BF00000020EFF30980BFF36F8F6C
:1003E0000F4B1A6820E9F00F10602DE908404FF01C
:1003F000500080F3118803F02DFB4FF0000080F3D4
:100400001188BDE8084019680868B0E8F00F80F36B
:100410000988BFF36F8F7047AFF30080AFF30080A0
:100420002C13002000BF80B582B000AF4FF0500306
:1004300083F31188BFF36F8FBFF34F8F7B6000BFD3
:1004400003F0F0F90346002B03D0074B4FF0805226
:100450001A6000233B603B6883F3118800BF00BF34
:100460000837BD4680BD00BF04ED00E080B400AF9A
:10047000084B00221A60084B00221A60074B48F60E
:100480009F421A60034B07221A6000BFBD4680BC22
:10049000704700BF10E000E018E000E014E000E06A
:1004A00080B485B000AFEFF30583FB60FB680F2BD2
:1004B00015D9174AFB6813441B78FB72154B1B7840
:1004C000FA7A9A420BD24FF0500383F31188BFF3AC
:1004D0006F8FBFF34F8F7B6000BF00BFFDE70E4BF8
:1004E0001B6803F4E0620D4B1B689A420BD94FF076
:1004F000500383F31188BFF36F8FBFF34F8F3B60BF
:1005000000BF00BFFDE700BF1437BD4680BC704789
:10051000F0E300E0100000200CED00E014000020EB
:1005200080B58AB000AF78600023FB6102F066FFFF
:10053000464B1B68002B04D100F03CF9434B0122D1
:100540001A607B68002B13D008231A467B6803F0DF
:100550000703D31A08337B617B69DB437A689A42CD
:1005600004D87A687B6913447B6001E000237B60D8
:100570007B68002B63DB7B68002B60D0344B1B68EF
:100580007A689A425BD8334B3B62324B1B687B6282
:1005900004E07B6A3B627B6A1B687B627B6A5B6808
:1005A0007A689A4203D97B6A1B68002BF1D17B6A77
:1005B000294A934243D03B6A1B6808221344FB61DB
:1005C0007B6A1A683B6A1A607B6A5A687B68D31A2E
:1005D00008225200934222D97A6A7B6813443B6115
:1005E0007B6A5A687B68D21A3B695A607B6A7A6870
:1005F0005A603B695B68FB60164BBB6102E0BB69FC
:100600001B68BB61BB691B685B68FA689A42F6D8D5
:10061000BB691A683B691A60BB693A691A600C4B7E
:100620001A687B6A5B68D31A094A13607B6A5B6845
:1006300043F000427B6A5A607B6A00221A6002F033
:10064000EBFEFB6918462837BD4680BD280C00200C
:1006500004000020180C0020200C002080B588B079
:1006600000AF78607B68BB617B68002B59D00823A2
:100670005B42BA691344BB61BB697B617B695B68A0
:10068000002B0BDB4FF0500383F31188BFF36F8F08
:10069000BFF34F8FFB6000BF00BFFDE77B691B68A6
:1006A000002B0BD04FF0500383F31188BFF36F8FF3
:1006B000BFF34F8FBB6000BF00BFFDE77B695B6886
:1006C000DB0F03F00103DBB2002B2AD07B691B6830
:1006D000002B26D17B695B6823F000427B695A605E
:1006E00002F08CFE7B695B683B61104BFB6102E0B2
:1006F000FB691B68FB61FB691B685B683A699A428E
:10070000F6D8FB691A687B691A60FB697A691A6016
:100710007B695A68064B1B681344054A136002F054
:100720007BFE00BF2037BD4680BD00BF180C0020F7
:100730000400002080B400AF024B1B681846BD4681
:1007400080BC70470400002080B400AF00BFBD46ED
:1007500080BC704780B584B000AF786039600023FA
:10076000FB607B68002B09D04FF0FF327B68B2FB47
:10077000F3F33A689A4201D9012300E00023002BE9
:1007800013D17B683A6802FB03F31846FFF7C8FEF3
:10079000F860FB68002B08D07B683A6802FB03F323
:1007A0001A460021F86805F09FFBFB6818461037D1
:1007B000BD4680BD80B483B000AF0F4B23F007036C
:1007C0007B600E4A7B6813600C4B00225A600C4B16
:1007D00040F6F8325A600A4B00221A607B683B6090
:1007E0003B6840F6F8325A603B68054A1A6000BF21
:1007F0000C37BD4680BC70471F000020180C00203D
:10080000200C002080B485B000AFF860B9607A6039
:10081000FB68064A1A60BB68054A1A607B6880223A
:100820001A6000BF1437BD4680BC70472C0C0020F6
:10083000880C002080B485B000AFF860B9607A60A1
:10084000FB68074A1A60BB68064A1A607B684FF467
:1008500080721A6000BF1437BD4680BC704700BF6D
:10086000880E0020E40E002080B582B000AF7860D2
:10087000054BDB68044A83F00403D360642002F074
:100880009DF900BFF4E700BF000C014080B582B0C5
:1008900000AF7860054BDB68044A83F48073D36053
:1008A0004FF47A7002F08AF900BFF3E7000C0140C0
:1008B00080B400AF00BF1846BD4680BC704780B50D
:1008C00084B002AFFFF7F4FF00F094F800F020F8D6
:1008D0003B1D01930123009300238022084909480E
:1008E00001F001FF3B460193012300930023802286
:1008F0000549064801F0F7FE02F0FCFC00BFFDE7E9
:100900004C62000869080008546200088D0800085D
:1009100080B500AF032000F0C9F8204B1B681F4AC8
:1009200023F4706313601D4B1B681C4A43F48073EF
:1009300013601A4B5B68194A23F00F035360174B7F
:100940005B68164A43F001035360144B5B68134A1B
:1009500023F0F0035360114B5B68104A43F010031F
:1009600053600E4BDB680D4A43F48073D3600B4B2E
:10097000DB680A4A43F40073D360042000F096F861
:10098000074B5B68064A23F070635360044B5B6857
:10099000034A43F08073536000BF80BD000C0140E8
:1009A0000010014080B582B000AF7860064BDB6874
:1009B000054A83F48073D360786800F04DF900BF76
:1009C0000837BD4680BD00BF000C014080B582B035
:1009D00000AF7860064BDB68054A83F40073D36090
:1009E000786800F039F900BF0837BD4680BD00BF08
:1009F000000C014080B400AF1F4B00221A601E4B58
:100A00001B681D4A43F48033136000BF1A4B1B68F8
:100A100003F40033002BF9D0174B5B68164A43F000
:100A200002035360144B5B68134A43F480335360F2
:100A3000114B5B68104A43F4E01353600F4B1B6883
:100A40000E4A43F0020313600B4B5B680A4A43F003
:100A500080035360084B1B68074A43F080731360A0
:100A600000BF054B1B6803F00073002BF9D000BFDB
:100A700000BFBD4680BC704700100240002002400D
:100A800080B483B000AF0346FB71074BDB69FA7992
:100A9000012101FA02F21146034A0B43D36100BF60
:100AA0000C37BD4680BC70470010024080B483B054
:100AB00000AF0346FB71074B9B69FA79012101FAEC
:100AC00002F21146034A0B43936100BF0C37BD4647
:100AD00080BC70470010024080B483B000AF034672
:100AE000FB71074B5B69FA79012101FA02F21146A9
:100AF000034A0B43536100BF0C37BD4680BC7047AF
:100B00000010024080B483B000AF0346FB71084B75
:100B1000DB69FA79012101FA02F2D2431146044A53
:100B20000B40D36100BF0C37BD4680BC704700BF8F
:100B30000010024080B483B000AF0346FB71084B45
:100B40009B69FA79012101FA02F2D2431146044A63
:100B50000B40936100BF0C37BD4680BC704700BF9F
:100B60000010024080B483B000AF0346FB71084B15
:100B70005B69FA79012101FA02F2D2431146044A73
:100B80000B40536100BF0C37BD4680BC704700BFAF
:100B90000010024080B400AF0C4B0D4A5A600B4B62
:100BA0001B680A4A43F004031360084B1B68074A9A
:100BB00043F002031360054B1B68044A43F0010332
:100BC000136000BFBD4680BC704700BF10E000E06E
:100BD0004019010080B485B000AF7860084B1B68F5
:100BE000FB6000BF064B1A68FB68D31A7A689A420A
:100BF000F8D800BF00BF1437BD4680BC704700BFA7
:100C0000E412002080B500AF0B20FFF74FFF104B20
:100C100023229A620E4B4FF47A72DA620C4B1B68F5
:100C20000B4A23F010031360094B1B68084A43F07A
:100C300001031360064BDB68054A43F00103D360F0
:100C4000044B1B68034A43F00073136000BF80BD70
:100C5000002C014000E100E080B485B000AF786076
:100C6000084B1B68FB6000BF064B1A68FB68D31A71
:100C70007A689A42F8D800BF00BF1437BD4680BCDE
:100C8000704700BFE812002080B400AF074B1B681C
:100C90000133064A1360064B1B69054A23F0010322
:100CA000136100BFBD4680BC704700BFE812002042
:100CB000002C014080B483B000AF78607B6803F102
:100CC00008027B685A607B684FF0FF329A607B684D
:100CD00003F108027B68DA607B6803F108027B6835
:100CE0001A617B6800221A6000BF0C37BD4680BCC9
:100CF000704780B483B000AF78607B6800221A61CF
:100D000000BF0C37BD4680BC704780B485B000AFD3
:100D1000786039607B685B68FB603B68FA685A60A2
:100D2000FB689A683B689A60FB689B683A685A60FF
:100D3000FB683A689A603B687A681A617B681B684E
:100D40005A1C7B681A6000BF1437BD4680BC7047D0
:100D500080B485B000AF786039603B681B68BB60C9
:100D6000BB68B3F1FF3F03D17B681B69FB600CE0FC
:100D70007B680833FB6002E0FB685B68FB60FB6834
:100D80005B681B68BA689A42F6D2FB685A683B688F
:100D90005A603B685B683A689A603B68FA689A6098
:100DA000FB683A685A603B687A681A617B681B681E
:100DB0005A1C7B681A6000BF1437BD4680BC704760
:100DC00080B485B000AF78607B681B69FB607B688E
:100DD0005B687A6892689A607B689B687A685268F8
:100DE0005A60FB685B687A689A4203D17B689A68AC
:100DF000FB685A607B6800221A61FB681B685A1EF8
:100E0000FB681A60FB681B6818461437BD4680BC37
:100E10007047000080B586B000AF7860396001236C
:100E20007B617B683B613B69002B0BD14FF050032A
:100E300083F31188BFF36F8FBFF34F8FFB6000BF49
:100E400000BFFDE73B69002B5DD03B69DB6B002BEE
:100E500059D03B691A6C3B69DB6B0021A3FB022371
:100E6000002B00D001210B46002B4CD1FFF75AFA82
:100E70003B691A683B69DB6B3969096C01FB03F359
:100E80001A443B699A603B6900229A633B691A687D
:100E90003B695A603B691A683B69DB6B013B396906
:100EA000096C01FB03F31A443B69DA603B69FF22DA
:100EB00083F844203B69FF2283F845203B68002BE0
:100EC00014D13B691B69002B1AD03B6910331846BB
:100ED00002F0E2FE0346002B12D0164B4FF0805278
:100EE0001A60BFF34F8FBFF36F8F09E03B69103378
:100EF0001846FFF7DFFE3B6924331846FFF7DAFE9A
:100F0000FFF740FA01E000237B617B69002B0BD1E6
:100F10004FF0500383F31188BFF36F8FBFF34F8FF0
:100F2000BB6000BF00BFFDE77B6918461837BD46B0
:100F300080BD00BF04ED00E080B58CB002AFF8606A
:100F4000B9607A603B6000237B623B68002B0BD169
:100F50004FF0500383F31188BFF36F8FBFF34F8FB0
:100F60003B6200BF00BFFDE7FB68002B31D03B6850
:100F7000002B2ED07B68002B02D0BB68002B28D022
:100F80007B68002B02D1BB68002B22D150237B61F0
:100F90007B69502B0BD04FF0500383F31188BFF3C4
:100FA0006F8FBFF34F8FFB6100BF00BFFDE77B6911
:100FB0003B687B627B6A012283F8462097F83020E9
:100FC0007B6A009313467A68B968F86800F068F89D
:100FD0000EE07B6A002B0BD14FF0500383F3118896
:100FE000BFF36F8FBFF34F8FBB6100BF00BFFDE743
:100FF0007B6A18462837BD4680BD80B58AB002AFEF
:10100000F860B9601346FB710023FB61FB68002B9D
:1010100032D00021BA68FB68A3FB0223002B00D06A
:1010200001210B46002B27D1FB68BA6802FB03F3B2
:1010300013F1510F20D8FB68BA6802FB03F3BB61C0
:10104000BB6950331846FFF76BFAF861FB69002B58
:1010500021D0FB697B617B6950337B61FB69002296
:1010600083F84620FA79FB69009313467A69B968D8
:10107000F86800F015F80EE0FB69002B0BD14FF07B
:10108000500383F31188BFF36F8FBFF34F8F3B6122
:1010900000BF00BFFDE7FB6918462037BD4680BD95
:1010A00080B584B000AFF860B9607A60FB70BB684F
:1010B000002B03D1BB69BA691A6002E0BB697A6888
:1010C0001A60BB69FA68DA63BB69BA681A640121FD
:1010D000B869FFF79FFEBB69FA7883F84C2000BF20
:1010E0001037BD4680BD80B582B000AF78607B68A8
:1010F000002B0ED07B6800229A607B6800221A6069
:101100007B680022DA60002300220021786800F06A
:1011100050F900BF0837BD4680BD80B586B000AF2E
:101120000346FB7101237B6100233B61FB791A4677
:1011300039697869FFF761FFF860F868FFF7D3FF56
:10114000FB6818461837BD4680BD80B588B002AF31
:1011500003463960FB7101237B6100233B61FB790E
:1011600000933B68002239697869FFF7E5FEF86073
:10117000F868FFF7B8FFFB6818461837BD4680BD12
:1011800080B586B000AF78607B683B617B68002BE0
:101190000BD14FF0500383F31188BFF36F8FBFF370
:1011A0004F8FFB6000BF00BFFDE7FFF7BBF83B6957
:1011B0001B68002B03D13B699B687B6101E0002326
:1011C0007B61FFF7DFF87B6918461837BD4680BDA5
:1011D00080B485B000AF78607B68002B0BD14FF0F6
:1011E000500383F31188BFF36F8FBFF34F8FBB6042
:1011F00000BF00BFFDE77B681B68002B03D17B6845
:101200009B68FB6001E00023FB60FB681846143715
:10121000BD4680BC704790B587B000AF78607B68F2
:101220003B613B69002B0BD14FF0500383F31188D6
:10123000BFF36F8FBFF34F8FFB6000BF00BFFDE7B1
:101240003B699C6803F058F903469C4211D13B6905
:10125000DB685A1E3B69DA603B69DB68002B05D10D
:10126000002300220021386900F0A3F801237B61EC
:1012700001E000237B617B6918461C37BD4690BDA9
:1012800090B587B000AF786039607B683B613B699F
:10129000002B0BD14FF0500383F31188BFF36F8FF6
:1012A000BFF34F8FFB6000BF00BFFDE73B699C6849
:1012B00003F022F903469C4207D13B69DB685A1CC4
:1012C0003B69DA6001237B610CE03968386900F022
:1012D000B3FB78617B69002B04D03B69DB685A1C47
:1012E0003B69DA607B6918461C37BD4690BD80B506
:1012F00088B002AFF860B9607A6000237B61FB6858
:10130000002B13D0BA68FB689A420FD802230093CF
:101310007B6800220021F868FFF70EFE78617B6988
:10132000002B12D07B69BA689A630EE07B69002BB0
:101330000BD14FF0500383F31188BFF36F8FBFF3CE
:101340004F8F3B6100BF00BFFDE77B691846183730
:10135000BD4680BD80B584B000AF786039600023A1
:10136000FB607B68002B10D03A687B689A420CD8EF
:10137000022200217868FFF740FEF860FB68002B2E
:1013800012D0FB683A689A630EE0FB68002B0BD121
:101390004FF0500383F31188BFF36F8FBFF34F8F6C
:1013A000BB6000BF00BFFDE7FB6818461037BD46B5
:1013B00080BD80B58EB000AFF860B9607A603B60E8
:1013C00000237B63FB683B633B6B002B0BD14FF02F
:1013D000500383F31188BFF36F8FBFF34F8FBB624E
:1013E00000BF00BFFDE7BB68002B03D13B6B1B6C4C
:1013F000002B01D1012300E00023002B0BD14FF083
:10140000500383F31188BFF36F8FBFF34F8F7B625D
:1014100000BF00BFFDE73B68022B03D13B6BDB6BDA
:10142000012B01D1012300E00023002B0BD14FF051
:10143000500383F31188BFF36F8FBFF34F8F3B626D
:1014400000BF00BFFDE703F065F80346002B02D1A3
:101450007B68002B01D1012300E00023002B0BD17E
:101460004FF0500383F31188BFF36F8FBFF34F8F9B
:10147000FB6100BF00BFFDE7FEF754FF3B6B9A6BBB
:101480003B6BDB6B9A4202D33B68022B29D13A6853
:10149000B968386B00F07AFEF8623B6B5B6A002B30
:1014A00010D03B6B2433184602F0F6FB0346002BAA
:1014B00013D0404B4FF080521A60BFF34F8FBFF3F1
:1014C0006F8F0AE0FB6A002B07D03A4B4FF0805237
:1014D0001A60BFF34F8FBFF36F8FFEF753FF0123E7
:1014E00063E07B68002B03D1FEF74CFF00235CE038
:1014F0007B6B002B06D107F11403184602F08EFD1A
:1015000001237B63FEF73EFF01F078FFFEF70AFF41
:101510003B6B93F844305BB2B3F1FF3F03D13B6BBD
:10152000002283F844203B6B93F845305BB2B3F163
:10153000FF3F03D13B6B002283F84520FEF722FFDB
:101540003A1D07F114031146184602F07DFD0346CB
:10155000002B24D1386B00F035FF0346002B18D048
:101560003B6B10337A681146184602F0D1FA386B9B
:1015700000F09CFE01F050FF0346002B7FF47CAF8F
:101580000C4B4FF080521A60BFF34F8FBFF36F8F39
:1015900072E7386B00F08AFE01F03EFF6CE7386BB3
:1015A00000F084FE01F038FF002318463837BD46AE
:1015B00080BD00BF04ED00E080B592B000AFF860E0
:1015C000B9607A603B60FB683B643B6C002B0BD1DD
:1015D0004FF0500383F31188BFF36F8FBFF34F8F2A
:1015E000FB6200BF00BFFDE7BB68002B03D13B6C73
:1015F0001B6C002B01D1012300E00023002B0BD139
:101600004FF0500383F31188BFF36F8FBFF34F8FF9
:10161000BB6200BF00BFFDE73B68022B03D13B6C00
:10162000DB6B012B01D1012300E00023002B0BD148
:101630004FF0500383F31188BFF36F8FBFF34F8FC9
:101640007B6200BF00BFFDE7FEF72AFFEFF31182C8
:101650004FF0500383F31188BFF36F8FBFF34F8FA9
:101660003A62FB613B6AFB633B6C9A6B3B6CDB6BE6
:101670009A4202D33B68022B47D13B6C93F845302A
:1016800087F83B303B6C9B6B7B633A68B968386C7E
:1016900000F07CFD97F93B30B3F1FF3F12D13B6C7A
:1016A0005B6A002B2ED03B6C2433184602F0F4FA10
:1016B0000346002B26D07B68002B23D07B680122B9
:1016C0001A601FE001F0C6FF386397F93B303A6BB0
:1016D0009A4217D997F93B307F2B0BD14FF050032B
:1016E00083F31188BFF36F8FBFF34F8FBB6100BFD0
:1016F00000BFFDE797F83B300133DBB25AB23B6CD9
:1017000083F8452001237B6401E000237B64FB6BAD
:101710007B617B6983F3118800BF7B6C1846483777
:10172000BD4680BD80B590B000AF786039607B6801
:10173000BB63BB6B002B0BD14FF0500383F31188BD
:10174000BFF36F8FBFF34F8F7B6200BF00BFFDE71A
:10175000BB6B1B6C002B0BD04FF0500383F3118835
:10176000BFF36F8FBFF34F8F3B6200BF00BFFDE73A
:10177000BB6B1B68002B03D1BB6B9B68002B01D19B
:10178000012300E00023002B0BD14FF0500383F323
:101790001188BFF36F8FBFF34F8FFB6100BF00BF96
:1017A000FDE7FEF77DFEEFF311824FF0500383F368
:1017B0001188BFF36F8FBFF34F8FBA617B61BB6935
:1017C0007B63BB6B9B6B3B63BB6BDB6B3A6B9A4284
:1017D00043D2BB6B93F8453087F82F303B6B5A1CD4
:1017E000BB6B9A6397F92F30B3F1FF3F12D1BB6BFC
:1017F0005B6A002B2ED0BB6B2433184602F04CFAE8
:101800000346002B26D03B68002B23D03B680122E7
:101810001A601FE001F01EFFB86297F92F30BA6A14
:101820009A4217D997F92F307F2B0BD14FF05003E5
:1018300083F31188BFF36F8FBFF34F8F3B6100BFFE
:1018400000BFFDE797F82F300133DBB25AB2BB6B14
:1018500083F845200123FB6301E00023FB637B6BDE
:10186000FB60FB6883F3118800BFFB6B18464037B1
:10187000BD4680BD80B58CB000AFF860B9607A60BD
:101880000023FB62FB68BB62BB6A002B0BD14FF0ED
:10189000500383F31188BFF36F8FBFF34F8F3B6209
:1018A00000BF00BFFDE7BB68002B03D1BB6A1B6C08
:1018B000002B01D1012300E00023002B0BD14FF0BE
:1018C000500383F31188BFF36F8FBFF34F8FFB611A
:1018D00000BF00BFFDE702F01DFE0346002B02D152
:1018E0007B68002B01D1012300E00023002B0BD1EA
:1018F0004FF0500383F31188BFF36F8FBFF34F8F07
:10190000BB6100BF00BFFDE7FEF70CFDBB6A9B6B30
:101910007B627B6A002B1FD0B968B86A00F0A0FC1C
:101920007B6A5A1EBB6A9A63BB6A1B69002B0FD085
:10193000BB6A1033184602F0AFF90346002B07D0FC
:101940003C4B4FF080521A60BFF34F8FBFF36F8F45
:10195000FEF718FD012369E07B68002B03D1FEF739
:1019600011FD002362E0FB6A002B06D107F1100392
:10197000184602F053FB0123FB62FEF703FD01F062
:101980003DFDFEF7CFFCBB6A93F844305BB2B3F188
:10199000FF3F03D1BB6A002283F84420BB6A93F85F
:1019A00045305BB2B3F1FF3F03D1BB6A002283F83D
:1019B0004520FEF7E7FC3A1D07F1100311461846D3
:1019C00002F042FB0346002B23D1B86A00F0C0FCB2
:1019D0000346002B17D0BB6A24337A681146184699
:1019E00002F096F8B86A00F061FC01F015FD0346BC
:1019F000002B89D10F4B4FF080521A60BFF34F8FED
:101A0000BFF36F8F80E7B86A00F050FC01F004FD6F
:101A10007AE7B86A00F04AFC01F0FEFCB86A00F010
:101A200097FC0346002B3FF46FAF00231846303776
:101A3000BD4680BD04ED00E080B58CB000AF78609D
:101A400039600023FB627B687B620023BB627B6A98
:101A5000002B0BD14FF0500383F31188BFF36F8F2E
:101A6000BFF34F8FBB6100BF00BFFDE77B6A1B6CFC
:101A7000002B0BD04FF0500383F31188BFF36F8F0F
:101A8000BFF34F8F7B6100BF00BFFDE702F042FD57
:101A90000346002B02D13B68002B01D1012300E05B
:101AA0000023002B0BD14FF0500383F31188BFF3B9
:101AB0006F8FBFF34F8F3B6100BF00BFFDE7FEF7A5
:101AC00031FC7B6A9B6B3B623B6A002B24D03B6AF8
:101AD0005A1E7B6A9A637B6A1B68002B04D102F052
:101AE00023FF02467B6A9A607B6A1B69002B0FD03A
:101AF0007B6A1033184602F0CFF80346002B07D05C
:101B00004C4B4FF080521A60BFF34F8FBFF36F8F73
:101B1000FEF738FC012389E03B68002B03D1FEF778
:101B200031FC002382E0FB6A002B06D107F1080399
:101B3000184602F073FA0123FB62FEF723FC01F062
:101B40005DFCFEF7EFFB7B6A93F844305BB2B3F1C8
:101B5000FF3F03D17B6A002283F844207B6A93F81D
:101B600045305BB2B3F1FF3F03D17B6A002283F8BB
:101B70004520FEF707FC3A4607F1080311461846D0
:101B800002F062FA0346002B32D1786A00F0E0FBE3
:101B90000346002B26D07B6A1B68002B09D1FEF779
:101BA000C1FB7B6A9B68184602F0D2FCB862FEF764
:101BB000E9FB7B6A24333A681146184601F0A8FF16
:101BC000786A00F073FB01F027FC0346002B7FF4DA
:101BD00076AF184B4FF080521A60BFF34F8FBFF3B0
:101BE0006F8F6CE7786A00F061FB01F015FC66E727
:101BF000786A00F05BFB01F00FFC786A00F0A8FB4C
:101C00000346002B3FF45BAFBB6A002B0DD0FEF701
:101C100089FB786A00F0A3FAF8617B6A9B68F9692E
:101C2000184602F0BDFDFEF7ADFB00231846303725
:101C3000BD4680BD04ED00E080B58EB000AFF86019
:101C4000B9607A6000237B63FB683B633B6B002BCE
:101C50000BD14FF0500383F31188BFF36F8FBFF3A5
:101C60004F8F7B6200BF00BFFDE7BB68002B03D135
:101C70003B6B1B6C002B01D1012300E00023002BE8
:101C80000BD14FF0500383F31188BFF36F8FBFF375
:101C90004F8F3B6200BF00BFFDE702F03BFC0346F5
:101CA000002B02D17B68002B01D1012300E000232F
:101CB000002B0BD14FF0500383F31188BFF36F8FCC
:101CC000BFF34F8FFB6100BF00BFFDE7FEF72AFBAC
:101CD0003B6B9B6BFB62FB6A002B21D03B6BDB6891
:101CE000BB62B968386B00F0BBFA3B6BBA6ADA606A
:101CF0003B6B5B6A002B0FD03B6B2433184601F023
:101D0000CBFF0346002B07D03C4B4FF080521A60AC
:101D1000BFF34F8FBFF36F8FFEF734FB012369E0F2
:101D20007B68002B03D1FEF72DFB002362E07B6B69
:101D3000002B06D107F11403184602F06FF90123B6
:101D40007B63FEF71FFB01F059FBFEF7EBFA3B6BE1
:101D500093F844305BB2B3F1FF3F03D13B6B0022F9
:101D600083F844203B6B93F845305BB2B3F1FF3FFF
:101D700003D13B6B002283F84520FEF703FB3A1D9D
:101D800007F114031146184602F05EF90346002BD2
:101D900023D1386B00F0DCFA0346002B17D03B6BE5
:101DA00024337A681146184601F0B2FE386B00F011
:101DB0007DFA01F031FB0346002B87D10F4B4FF02A
:101DC00080521A60BFF34F8FBFF36F8F7EE7386B7F
:101DD00000F06CFA01F020FB78E7386B00F066FA4F
:101DE00001F01AFB386B00F0B3FA0346002B3FF406
:101DF0006DAF002318463837BD4680BD04ED00E0C6
:101E000080B590B000AFF860B9607A60FB68BB63E2
:101E1000BB6B002B0BD14FF0500383F31188BFF342
:101E20006F8FBFF34F8F7B6200BF00BFFDE7BB68C2
:101E3000002B03D1BB6B1B6C002B01D1012300E0F5
:101E40000023002B0BD14FF0500383F31188BFF315
:101E50006F8FBFF34F8F3B6200BF00BFFDE7FEF700
:101E60001FFBEFF311824FF0500383F31188BFF390
:101E70006F8FBFF34F8FFA61BB61FB697B63BB6BF5
:101E80009B6B3B633B6B002B47D0BB6B93F84430A1
:101E900087F82F30B968B86B00F0E2F93B6B5A1E37
:101EA000BB6B9A6397F92F30B3F1FF3F12D1BB6B35
:101EB0001B69002B2ED0BB6B1033184601F0ECFED3
:101EC0000346002B26D07B68002B23D07B680122A1
:101ED0001A601FE001F0BEFBB86297F92F30BA6AB2
:101EE0009A4217D997F92F307F2B0BD14FF050031F
:101EF00083F31188BFF36F8FBFF34F8F7B6100BFF8
:101F000000BFFDE797F82F300133DBB25AB2BB6B4D
:101F100083F844200123FB6301E00023FB637B6B18
:101F20003B613B6983F3118800BFFB6B1846403768
:101F3000BD4680BD80B58CB000AF786039607B68ED
:101F4000BB62BB6A002B0BD14FF0500383F31188A7
:101F5000BFF36F8FBFF34F8FFB6100BF00BFFDE783
:101F60003B68002B03D1BB6A1B6C002B01D1012302
:101F700000E00023002B0BD14FF0500383F31188B6
:101F8000BFF36F8FBFF34F8FBB6100BF00BFFDE793
:101F9000BB6A1B6C002B0BD14FF0500383F31188ED
:101FA000BFF36F8FBFF34F8F7B6100BF00BFFDE7B3
:101FB000FEF776FAEFF311824FF0500383F31188A6
:101FC000BFF36F8FBFF34F8F3A61FB603B697B625A
:101FD000BB6A9B6B002B0CD0BB6ADB683B62396829
:101FE000B86A00F03DF9BB6A3A6ADA600123FB6225
:101FF00001E00023FB627B6ABB60BB6883F311884E
:1020000000BFFB6A18463037BD4680BD80B584B03E
:1020100000AF78607B68002B0BD14FF0500383F347
:102020001188BFF36F8FBFF34F8FBB6000BF00BF3E
:10203000FDE7FEF777F97B689B6BFB60FEF7A2F983
:10204000FB6818461037BD4680BD80B586B000AF2E
:1020500078607B687B617B69002B0BD14FF050036C
:1020600083F31188BFF36F8FBFF34F8FFB6000BF07
:1020700000BFFDE7FEF756F97B69DA6B7B699B6B66
:10208000D31A3B61FEF77EF93B6918461837BD4607
:1020900080BD80B487B000AF78607B687B617B696E
:1020A000002B0BD14FF0500383F31188BFF36F8FD8
:1020B000BFF34F8FFB6000BF00BFFDE77B699B6BE9
:1020C0003B613B6918461C37BD4680BC704780B5F4
:1020D00084B000AF78607B68FB60FB68002B0BD19D
:1020E0004FF0500383F31188BFF36F8FBFF34F8F0F
:1020F000BB6000BF00BFFDE7F86800F023FAFB6893
:1021000093F84630002B02D1F868FEF7A7FA00BF1B
:102110001037BD4680BD80B483B000AF78607B6867
:102120009B6C18460C37BD4680BC704780B483B0AA
:1021300000AF786039607B683A689A6400BF0C37FA
:10214000BD4680BC704780B483B000AF78607B68C8
:1021500093F84C3018460C37BD4680BC704780B4AD
:1021600085B000AF78607B685B6A002B06D07B6827
:102170001B6B1B68C3F13803FB6001E00023FB60AD
:10218000FB6818461437BD4680BC704780B586B0E2
:1021900000AFF860B9607A6000237B61FB689B6BDD
:1021A0003B61FB681B6C002B0DD1FB681B68002B8F
:1021B0004DD1FB689B68184602F05AFA7861FB68BB
:1021C00000229A6043E07B68002B19D1FB685868B5
:1021D000FB681B6C1A46B96803F026FFFB685A6857
:1021E000FB681B6C1A44FB685A60FB685A68FB6802
:1021F0009B689A422BD3FB681A68FB685A6026E0FA
:10220000FB68D868FB681B6C1A46B96803F00CFFC2
:10221000FB68DA68FB681B6C5B421A44FB68DA6097
:10222000FB68DA68FB681B689A4207D2FB689A6809
:10223000FB681B6C5B421A44FB68DA607B68022B0C
:1022400005D13B69002B02D03B69013B3B613B69F7
:102250005A1CFB689A637B6918461837BD4680BDD7
:1022600080B582B000AF786039607B681B6C002B52
:1022700018D07B68DA687B681B6C1A447B68DA606C
:102280007B68DA687B689B689A4203D37B681A682C
:102290007B68DA607B68D9687B681B6C1A46386893
:1022A00003F0C2FE00BF0837BD4680BD80B584B0D4
:1022B00000AF7860FEF736F87B6893F84530FB7323
:1022C00011E07B685B6A002B12D07B6824331846D0
:1022D00001F0E2FC0346002B01D001F01DFFFB7B67
:1022E000013BDBB2FB7397F90F30002BE9DC00E018
:1022F00000BF7B68FF2283F84520FEF743F8FEF716
:1023000011F87B6893F84430BB7311E07B681B695C
:10231000002B12D07B681033184601F0BDFC034639
:10232000002B01D001F0F8FEBB7B013BDBB2BB739D
:1023300097F90E30002BE9DC00E000BF7B68FF223C
:1023400083F84420FEF71EF800BF1037BD4680BD5D
:1023500080B584B000AF7860FDF7E4FF7B689B6BCD
:10236000002B02D10123FB6001E00023FB60FEF79C
:1023700009F8FB6818461037BD4680BD80B487B0A9
:1023800000AF78607B683B613B69002B0BD14FF05D
:10239000500383F31188BFF36F8FBFF34F8FFB6040
:1023A00000BF00BFFDE73B699B6B002B02D10123FF
:1023B0007B6101E000237B617B6918461C37BD46C9
:1023C00080BC704780B584B000AF7860FDF7AAFF8D
:1023D0007B689A6B7B68DB6B9A4202D10123FB60BE
:1023E00001E00023FB60FDF7CDFFFB6818461037C6
:1023F000BD4680BD80B487B000AF78607B683B612C
:102400003B69002B0BD14FF0500383F31188BFF3CE
:102410006F8FBFF34F8FFB6000BF00BFFDE73B69CD
:102420009A6B3B69DB6B9A4202D101237B6101E02D
:1024300000237B617B6918461C37BD4680BC704712
:1024400080B487B000AF7860396000233B617B685F
:10245000002B0BD14FF0500383F31188BFF36F8F24
:10246000BFF34F8FFB6000BF00BFFDE73B68002B51
:1024700024D000237B611EE0174A7B69DB001344F4
:102480005B687A689A4205D17B69DB00124A134483
:102490003B6113E03B69002B0AD10F4A7B6952F87C
:1024A0003330002B04D17B69DB000B4A13443B61C2
:1024B0007B6901337B617B69072BDDD93B69002B8D
:1024C00005D03B693A681A603B697A685A6000BF78
:1024D0001C37BD4680BC7047EC12002080B487B02A
:1024E00000AF786000233B617B68002B0BD14FF07D
:1024F000500383F31188BFF36F8FBFF34F8FFB60DF
:1025000000BF00BFFDE700237B6110E00C4A7B6940
:10251000DB0013445B687A689A4205D1084A7B69FC
:1025200052F833303B6105E07B6901337B617B69A5
:10253000072BEBD93B6918461C37BD4680BC70475A
:10254000EC12002080B485B000AF78607B68002B6F
:102550000BD14FF0500383F31188BFF36F8FBFF39C
:102560004F8FBB6000BF00BFFDE70023FB6016E09C
:102570000F4AFB68DB0013445B687A689A420BD110
:102580000B4AFB68002142F83310094AFB68DB0064
:10259000134400225A6006E0FB680133FB60FB68CD
:1025A000072BE5D900BF00BF1437BD4680BC70477C
:1025B000EC12002080B586B000AFF860B9607A6098
:1025C000FB687B61FDF7AEFE7B6993F844305BB23C
:1025D000B3F1FF3F03D17B69002283F844207B697C
:1025E00093F845305BB2B3F1FF3F03D17B69002222
:1025F00083F84520FDF7C6FE7B699B6B002B06D157
:102600007B6924337A68B968184601F0FFFA786963
:10261000FFF74CFE00BF1837BD4680BD80B58EB0B9
:1026200004AFF860B9607A603B607B6B002B0BD124
:102630004FF0500383F31188BFF36F8FBFF34F8FB9
:102640003B6200BF00BFFDE7BB6B002B0BD14FF01F
:10265000500383F31188BFF36F8FBFF34F8FFB617C
:1026600000BF00BFFDE75C233B613B695C2B0BD0E7
:102670004FF0500383F31188BFF36F8FBFF34F8F79
:10268000BB6100BF00BFFDE73B69BB6B002B23D0E4
:102690007B6B002B20D0BB6B7B625C220021786AB5
:1026A00003F022FC7B6A7A6B1A637B6A022283F84E
:1026B0005920002303937B6A029307F114030193CB
:1026C0003B6B00933B687A68B968F86800F055F88E
:1026D000786A00F0E2F801E000237B617B6918462C
:1026E0002837BD4680BD80B58CB004AFF860B960B6
:1026F0003B601346FB80FB889B001846FDF710FFEC
:1027000078617B69002B13D05C20FDF709FFF8612D
:10271000FB69002B08D05C220021F86903F0E4FB80
:10272000FB697A691A6305E07869FDF797FF01E0B4
:102730000023FB61FB69002B17D0FB69002283F8A3
:102740005920FA8800230393FB690293FB6A0193E3
:10275000BB6A00933B68B968F86800F00EF8F86946
:1027600000F09BF80123BB6102E04FF0FF33BB6137
:10277000BB6918462037BD4680BD80B588B000AF24
:10278000F860B9607A603B603B6B186B7B689B00BC
:102790001A46A52103F0A8FB3B6B1A6B7B6803F17B
:1027A0008043013B9B001344BB61BB6923F00703DB
:1027B000BB61BB6903F00703002B0BD04FF0500344
:1027C00083F31188BFF36F8FBFF34F8F7B6100BF1F
:1027D00000BFFDE7BB68002B1ED00023FB6112E0A9
:1027E000BA68FB69134419783A6BFB6913443433B4
:1027F0000A461A70BA68FB6913441B78002B06D08E
:10280000FB690133FB61FB690F2BE9D900E000BFD5
:102810003B6B002283F84320BB6A372B0BD94FF068
:10282000500383F31188BFF36F8FBFF34F8F3B616A
:1028300000BF00BFFDE7BB6A372B01D93723BB625E
:102840003B6BBA6ADA623B6BBA6ADA643B6B04339D
:102850001846FEF74EFA3B6B18331846FEF749FA56
:102860003B6B3A6B1A61BB6AC3F138023B6B9A61EE
:102870003B6B3A6B5A623A68F968B869FDF748FCF5
:1028800002463B6B1A60FB6A002B02D0FB6A3A6B74
:102890001A6000BF2037BD4680BD80B584B000AF50
:1028A0007860FDF73FFD414B1B6801333F4A1360E1
:1028B0003F4B1B68002B09D13D4A7B6813603B4BA3
:1028C0001B68012B10D101F071FC0DE0394B1B6826
:1028D000002B09D1364B1B68DA6A7B68DB6A9A42A7
:1028E00002D8334A7B681360334B1B680133324A8A
:1028F0001360314B1A687B685A647B68DA6A2F4B25
:102900001B689A4203D97B68DB6A2C4A13607B6898
:10291000DA6A2B4913469B0013449B000B44043393
:102920001B68FB607B68FA689A60FB689A687B6842
:10293000DA60FB689B687A6804325A607B681A1D0B
:10294000FB689A607B68DA6A13469B0013449B001D
:102950001B4A1A447B685A617B68DA6A1849134635
:102960009B0013449B000B441B68591C14481346DE
:102970009B0013449B0003441960FDF703FD0D4BBE
:102980001B68002B0ED00A4B1B68DA6A7B68DB6A77
:102990009A4207D20B4B4FF080521A60BFF34F8F11
:1029A000BFF36F8F00BF1037BD4680BD00180020F9
:1029B0002C1300200C1800201C18002008180020E0
:1029C0003013002004ED00E080B584B000AF7860E3
:1029D000FDF7A8FC7B68002B02D12F4B1B6800E0A1
:1029E0007B68FB60FB6804331846FEF7E9F9FB6877
:1029F0009B6A002B04D0FB6818331846FEF7E0F9F9
:102A0000264B1B680133254A1360234B1B68FA6869
:102A10009A420BD1FB68043319462148FEF775F939
:102A2000204B1B6801331F4A136006E01E4B1B68D6
:102A3000013B1D4A136001F045FDFDF7A3FC164B59
:102A40001B68FA689A4202D0F86801F00BFD174B38
:102A50001B68002B1CD0104B1B68FA689A4217D1D8
:102A6000134B1B68002B0BD04FF0500383F31188DE
:102A7000BFF36F8FBFF34F8FBB6000BF00BFFDE799
:102A80000C4B4FF080521A60BFF34F8FBFF36F8F24
:102A900000BF1037BD4680BD2C1300201C1800203D
:102AA000D4170020E8170020001800200C18002080
:102AB0002818002004ED00E080B58AB000AF7860EF
:102AC000396000237B627B68002B0BD14FF05003F1
:102AD00083F31188BFF36F8FBFF34F8F7B6100BF0C
:102AE00000BFFDE73B68002B0BD14FF0500383F391
:102AF0001188BFF36F8FBFF34F8F3B6100BF00BFE3
:102B0000FDE72B4B1B68002B0BD04FF0500383F3DA
:102B10001188BFF36F8FBFF34F8FFB6000BF00BF03
:102B2000FDE700F06BFC234B1B683B627B681B6876
:102B30003A681344FB617B681B683A6A9A420BD27D
:102B40007B681B68FA699A4211D2FA693B6A9A4219
:102B50000DD901237B620AE07B681B68FA699A42FF
:102B600003D3FA693B6A9A4201D901237B627B68ED
:102B7000FA691A607B6A002B06D0FA693B6AD31A9D
:102B80000021184602F0E2FB00F046FCB861BB6988
:102B9000002B07D1084B4FF080521A60BFF34F8FC4
:102BA000BFF36F8F7B6A18462837BD4680BD00BFD4
:102BB000281800200418002004ED00E080B584B03F
:102BC00000AF78600023FB607B68002B18D0144BAB
:102BD0001B68002B0BD04FF0500383F31188BFF319
:102BE0006F8FBFF34F8FBB6000BF00BFFDE700F0EA
:102BF00005FC0021786802F0A9FB00F00DFCF860EC
:102C0000FB68002B07D1074B4FF080521A60BFF3CF
:102C10004F8FBFF36F8F00BF1037BD4680BD00BF21
:102C20002818002004ED00E080B58AB000AF78607D
:102C30007B68FB61FB69002B0BD14FF0500383F3E2
:102C40001188BFF36F8FBFF34F8FFB6000BF00BFD2
:102C5000FDE72D4B1B68FA699A4203D1002387F8E0
:102C600027304BE0FDF75EFBFB695B69BB61274BDF
:102C70001B687B61264B1B683B61FDF783FBBA69D0
:102C80007B699A4203D0BA693B699A4203D1022315
:102C900087F8273032E0BB691E4A934220D1FB6996
:102CA0009B6A002B18D1032387F8273000233B624F
:102CB0000EE0FA693B6A134458331B78DBB2012BF0
:102CC00003D1022387F8273018E03B6A01333B62C7
:102CD0003B6A002BEDDD11E0022387F827300DE081
:102CE000BB690D4A934202D0BB69002B03D1042378
:102CF00087F8273002E0012387F8273097F827303C
:102D000018462837BD4680BD2C130020B817002078
:102D1000BC170020EC170020D417002080B584B029
:102D200000AF7860FDF7FEFA7B68002B02D1074BFD
:102D30001B6800E07B68FB60FB68DB6ABB60FDF73B
:102D400021FBBB6818461037BD4680BD2C13002000
:102D500080B588B000AF7860FDF7A2FBEFF3118279
:102D60004FF0500383F31188BFF36F8FBFF34F8F82
:102D70003A61FB603B69FB617B68002B02D1094B28
:102D80001B6800E07B68BB61BB69DB6A7B61FB6938
:102D9000BB60BB6883F3118800BF7B69184620378E
:102DA000BD4680BD2C13002080B588B000AF786090
:102DB00039600023FB613B68372B0BD94FF0500380
:102DC00083F31188BFF36F8FBFF34F8FBB6000BFDA
:102DD00000BFFDE73B68372B01D937233B60FDF788
:102DE000A1FA7B68002B02D14F4B1B6800E07B6887
:102DF000BB61BB69DB6C7B617A693B689A4200F01E
:102E00008C803A687B699A420DD9474B1B68BA6936
:102E10009A420FD0444B1B68DB6A3A689A4209D346
:102E20000123FB6106E0404B1B68BA699A4201D15D
:102E30000123FB61BB69DB6A3B61BB69DA6CBB697F
:102E4000DB6A9A4202D1BB693A68DA62BB693A68C6
:102E5000DA64BB699B69002B04DB3B68C3F1380271
:102E6000BB699A61BB6959693A6913469B0013446F
:102E70009B002E4A1344994244D1BB69043318463F
:102E8000FDF79EFFBB69DA6A294B1B689A4203D99A
:102E9000BB69DB6A264A1360BB69DA6A23491346B9
:102EA0009B0013449B000B4404331B68FB60BB690D
:102EB000FA689A60FB689A68BB69DA60FB689B688D
:102EC000BA6904325A60BB691A1DFB689A60BB6913
:102ED000DA6A13469B0013449B00144A1A44BB69E8
:102EE0005A61BB69DA6A114913469B0013449B007F
:102EF0000B441B68591C0D4813469B0013449B0050
:102F000003441960FB69002B07D00A4B4FF0805235
:102F10001A60BFF34F8FBFF36F8FFDF733FA00BF17
:102F20002037BD4680BD00BF2C1300203013002089
:102F30000818002004ED00E080B586B000AF78608E
:102F4000FDF7F0F97B68002B02D1374B1B6800E0DE
:102F50007B683B613B6904331846FDF731FF3B69F1
:102F60009B6A002B04D03B6918331846FDF728FFF5
:102F70003B69043319462D48FDF7C7FE00237B61EA
:102F800010E03A697B69134458331B78DBB2012B9C
:102F900005D13A697B691344583300221A707B6962
:102FA00001337B617B69002BEBDDFDF7EBF9204BF7
:102FB0001B68002B05D0FDF7B5F901F083FAFDF78A
:102FC000E1F9194B1B683A699A4228D1184B1B68E2
:102FD000002B18D0174B1B68002B0BD04FF0500361
:102FE00083F31188BFF36F8FBFF34F8FFB6000BF78
:102FF00000BFFDE7104B4FF080521A60BFF34F8FB8
:10300000BFF36F8F0BE0094B1A680C4B1B689A4299
:1030100003D1054B00221A6001E000F01BFD00BF48
:103020001837BD4680BD00BF2C130020EC170020D0
:103030000C1800202818002004ED00E000180020E3
:1030400080B487B000AF786000237B617B683B6110
:103050007B68002B0BD14FF0500383F31188BFF333
:103060006F8FBFF34F8FFB6000BF00BFFDE73B6971
:103070005B690A4A93420AD13B699B6A084A9342B8
:1030800005D03B699B6A002B01D101237B617B69E1
:1030900018461C37BD4680BC704700BFEC170020A7
:1030A000C017002080B586B000AF78607B687B6178
:1030B0007B68002B0BD14FF0500383F31188BFF3D3
:1030C0006F8FBFF34F8FFB6000BF00BFFDE7354B35
:1030D0001B687A699A4260D07B69002B5DD0FDF74E
:1030E00021F97869FFF7ACFF0346002B53D07B69C9
:1030F00004331846FDF764FE7B69DA6A2A4B1B68C5
:103100009A4203D97B69DB6A274A13607B69DA6AD2
:10311000264913469B0013449B000B4404331B6851
:103120003B617B693A699A603B699A687B69DA60BE
:103130003B699B687A6904325A607B691A1D3B6956
:103140009A607B69DA6A13469B0013449B00174A16
:103150001A447B695A617B69DA6A144913469B00F9
:1031600013449B000B441B68591C104813469B00DA
:1031700013449B00034419607B69DA6A094B1B689E
:10318000DB6A9A4207D30A4B4FF080521A60BFF3B2
:103190004F8FBFF36F8FFDF7F5F800BF1837BD46AF
:1031A00080BD00BF2C130020081800203013002021
:1031B00004ED00E080B58AB000AF786000237B6248
:1031C0007B683B627B68002B0BD14FF0500383F38D
:1031D0001188BFF36F8FBFF34F8F7B6100BF00BFBC
:1031E000FDE7FDF75DF9EFF311824FF0500383F334
:1031F0001188BFF36F8FBFF34F8F3A61FB603B695C
:10320000FB61386AFFF71CFF0346002B5BD0334B92
:103210001B68002B51D13B6ADA6A314B1B68DB6AB1
:103220009A4204D301237B622E4B01221A603B6A2F
:1032300004331846FDF7C4FD3B6ADA6A2A4B1B6863
:103240009A4203D93B6ADB6A274A13603B6ADA6A0F
:10325000264913469B0013449B000B4404331B6810
:10326000BB613B6ABA699A60BB699A683B6ADA607B
:10327000BB699B683A6A04325A603B6A1A1DBB6993
:103280009A603B6ADA6A13469B0013449B00174A14
:103290001A443B6A5A613B6ADA6A144913469B0036
:1032A00013449B000B441B68591C104813469B0099
:1032B00013449B000344196005E03B6A1833194628
:1032C0000B48FDF722FDFB69BB60BB6883F31188E7
:1032D00000BF7B6A18462837BD4680BD28180020ED
:1032E0002C13002014180020081800203013002090
:1032F000C017002080B58AB004AF0023BB60002354
:103300007B603A46391D07F108031846FDF77AFA43
:1033100039687B68BA680292019300230093002306
:103320000A4623492348FFF779F90346224A1360E6
:10333000214B1B68002B02D001237B6101E000239D
:103340007B617B69012B02D102F06EF878617B69A9
:10335000012B16D14FF0500383F31188BFF36F8F09
:10336000BFF34F8F3B6100BF144B4FF0FF321A6029
:10337000134B01221A60134B00221A60FCF743FF23
:103380000FE07B69B3F1FF3F0BD14FF0500383F3A4
:103390001188BFF36F8FBFF34F8FFB6000BF00BF7B
:1033A000FDE7094B1B6800BF1837BD4680BD00BF55
:1033B0005C6200087F4100082418002020180020CB
:1033C0000C180020041800200800002080B582B0EE
:1033D00000AF4FF0500383F31188BFF36F8FBFF33B
:1033E0004F8F7B6000BF044B00221A60FCF77EFF0A
:1033F00000BF0837BD4680BD0C18002080B400AF68
:10340000044B1B680133034A136000BFBD4680BCF8
:10341000704700BF2818002080B588B000AF002397
:10342000FB610023BB61724B1B68002B0BD14FF07B
:10343000500383F31188BFF36F8FBFF34F8F7B600F
:1034400000BF00BFFDE7FCF76DFF694B1B68013B48
:10345000674A1360664B1B68002B40F0C180654BC8
:103460001B68002B00F0BC808BE0634BDB68DB68E3
:10347000FB61FB699B6A3B61FB69DB69FA69126A64
:103480009A60FB691B6AFA69D2695A603B695A689B
:10349000FB6918339A4203D1FB691A6A3B695A6087
:1034A000FB6900229A623B691B685A1E3B691A60DD
:1034B000FB695B69FB60FB699B68FA69D2689A608B
:1034C000FB69DB68FA6992685A60FB685A68FB69B5
:1034D00004339A4203D1FB69DA68FB685A60FB69DE
:1034E00000225A61FB681B685A1EFB681A60FB6960
:1034F000DA6A424B1B689A4203D9FB69DB6A3F4A8E
:103500001360FB69DA6A3E4913469B0013449B0033
:103510000B4404331B68BB60FB69BA689A60BB68E4
:103520009A68FB69DA60BB689B68FA6904325A6082
:10353000FB691A1DBB689A60FB69DA6A13469B0037
:1035400013449B002E4A1A44FB695A61FB69DA6AEC
:103550002B4913469B0013449B000B441B68591CCA
:10356000274813469B0013449B0003441960FB69E2
:10357000DA6A244B1B68DB6A9A4202D3224B01228F
:103580001A601D4B1B68002B7FF46FAFFB69002B8B
:1035900001D000F097FF1D4B1B687B617B69002BFE
:1035A00010D000F03FF90346002B02D0164B012249
:1035B0001A607B69013B7B617B69002BF1D1134B66
:1035C00000221A60104B1B68002B09D00123BB613D
:1035D0000F4B4FF080521A60BFF34F8FBFF36F8FC6
:1035E000FCF7D0FEBB6918462037BD4680BD00BF42
:1035F0002818002000180020C017002008180020FC
:10360000301300202C130020141800201018002064
:1036100004ED00E080B483B000AF044B1B687B6016
:103620007B6818460C37BD4680BC704704180020E4
:1036300080B582B000AFFCF733FF00237B60044B02
:103640001B683B603B6818460837BD4680BD00BF1D
:103650000418002080B400AF024B1B681846BD461A
:1036600080BC70470018002080B485B000AF78603F
:103670007B68002B02D10D4B1B6800E07B68FB6070
:10368000FB68002B0BD14FF0500383F31188BFF37D
:103690006F8FBFF34F8FBB6000BF00BFFDE7FB68BC
:1036A000343318461437BD4680BC70472C130020B5
:1036B00080B586B000AFF860B9607A6000237B61A6
:1036C00038233B61FFF79AFE3A4B1B68BA689A426F
:1036D00068D33B69013B3B617A691346DB001344C5
:1036E0009B001A46FB6898183A6913469B001344DE
:1036F0009B00314A13440122194600F02BFE02467A
:103700007B6913447B613B69002BE2D17A691346E4
:10371000DB0013449B001A46FB681344274A1168D8
:103720000222184600F016FE02467B6913447B61B4
:103730007A691346DB0013449B001A46FB68134466
:103740001F4A11680222184600F004FE02467B69F7
:1037500013447B617A691346DB0013449B001A46CD
:10376000FB68134404221749184600F0F3FD024693
:103770007B6913447B617A691346DB0013449B0029
:103780001A46FB68134403220F49184600F0E2FD75
:1037900002467B6913447B617B68002B02D07B6807
:1037A00000221A60FFF738FE7B6918461837BD46BD
:1037B00080BD00BF0018002030130020B817002083
:1037C000BC170020D4170020EC17002080B584B06F
:1037D00000AF7860114B1B68002B0BD04FF05003EB
:1037E00083F31188BFF36F8FBFF34F8FBB6000BFB0
:1037F00000BFFDE7FFF702FEFCF794FD084B1A68D7
:103800007B681344064A1360FCF7BCFDFFF704FE17
:10381000F860FB6818461037BD4680BD28180020A8
:103820001018002080B58AB000AF00237B627E4B69
:103830001B68002B40F0EE807C4B1B6801333B6221
:103840007A4A3B6A13603B6A002B21D1784B1B6894
:103850001B68002B0BD04FF0500383F31188BFF38C
:103860006F8FBFF34F8F7B6000BF00BFFDE7704BD2
:103870001B68FB616F4B1B686D4A13606D4AFB69E7
:1038800013606D4B1B6801336B4A136000F01AFE26
:103890006A4B1B683A6A9A42C0F0A780644B1B6867
:1038A0001B68002B04D1654B4FF0FF321A609CE07F
:1038B0005F4B1B68DB68DB68BB61BB695B687B6176
:1038C0003A6A7B699A4203D25C4A7B6913608CE056
:1038D000BB695B693B61BB699B68BA69D2689A60E6
:1038E000BB69DB68BA6992685A603B695A68BB6910
:1038F00004339A4203D1BB69DA683B695A60BB69F9
:1039000000225A613B691B685A1E3B691A60BB69F9
:103910009B6A002B1ED0BB699B6AFB60BB69DB699D
:10392000BA69126A9A60BB691B6ABA69D2695A603D
:10393000FB685A68BB6918339A4203D1BB691A6A9B
:10394000FB685A60BB6900229A62FB681B685A1EBA
:10395000FB681A60BB69DA6A394B1B689A4203D963
:10396000BB69DB6A364A1360BB69DA6A35491346BC
:103970009B0013449B000B4404331B68BB60BB6972
:10398000BA689A60BB689A68BB69DA60BB689B6872
:10399000BA6904325A60BB691A1DBB689A60BB6978
:1039A000DA6A13469B0013449B00264A1A44BB69FB
:1039B0005A61BB69DA6A234913469B0013449B0092
:1039C0000B441B68591C1F4813469B0013449B0063
:1039D00003441960BB69DA6A1B4B1B68DB6A9A42B5
:1039E0007FF65CAF01237B6258E7174B1B68DA6AEE
:1039F000144913469B0013449B000B441B68012B86
:103A000001D901237B62114B1B68002B07D00123D6
:103A10007B6204E00E4B1B6801330D4A13607B6A26
:103A200018462837BD4680BD2818002004180020FD
:103A3000B8170020BC1700201818002020180020FC
:103A400008180020301300202C1300201418002028
:103A50001018002080B485B000AF284B1B68002BE5
:103A600003D0274B01221A6042E0254B00221A6046
:103A7000244B1B68FB6011E0FB68002B0BD14FF05F
:103A8000500383F31188BFF36F8FBFF34F8F7B60B9
:103A900000BF00BFFDE7FB68013BFB601A49FA6805
:103AA00013469B0013449B000B441B68002BE3D080
:103AB000FA6813469B0013449B00134A1344BB60EF
:103AC000BB685B685A68BB685A60BB685A68BB6869
:103AD00008339A4204D1BB685B685A68BB685A6075
:103AE000BB685B68DB68094A1360064AFB681360C1
:103AF00000BF1437BD4680BC704700BF28180020A7
:103B00001418002008180020301300202C13002067
:103B100080B584B000AF786039607B68002B0BD132
:103B20004FF0500383F31188BFF36F8FBFF34F8FB4
:103B3000FB6000BF00BFFDE7074B1B681833194649
:103B40007868FDF705F90121386801F0FFFB00BF37
:103B50001037BD4680BD00BF2C13002080B588B053
:103B600000AFF860B9607A60FB68002B0BD14FF0B2
:103B7000500383F31188BFF36F8FBFF34F8FBB6187
:103B800000BF00BFFDE71F4B1B68002B0BD14FF0A0
:103B9000500383F31188BFF36F8FBFF34F8F7B61A7
:103BA00000BF00BFFDE7184B1B68BA6842F0004237
:103BB0009A61FB685B68FB61134B1B68FA69DA6109
:103BC000114B1B68FA6992681A620F4B1A68FB69FD
:103BD0009B6818325A600C4B1B6803F11802FB6992
:103BE0009A60094B1B68FA689A62FB681B685A1C4A
:103BF000FB681A600121786801F0A8FB00BF20373C
:103C0000BD4680BD281800202C13002080B586B04A
:103C100000AFF860B9607A60FB68002B0BD14FF001
:103C2000500383F31188BFF36F8FBFF34F8F3B6156
:103C300000BF00BFFDE7FB685B687B61154B1B683D
:103C40007A69DA61134B1B687A6992681A62114BC0
:103C50001A687B699B6818325A600E4B1B6803F127
:103C600018027B699A600B4B1B68FA689A62FB68C2
:103C70001B685A1CFB681A607B68002B02D04FF04F
:103C8000FF33BB607968B86801F060FB00BF18378C
:103C9000BD4680BD2C13002080B48BB000AF78608F
:103CA0007B68DB68DB683B623B6A002B0BD14FF023
:103CB000500383F31188BFF36F8FBFF34F8FFB6007
:103CC00000BF00BFFDE73B6A9B6AFB613B6ADB69A3
:103CD0003A6A126A9A603B6A1B6A3A6AD2695A6007
:103CE000FB695A683B6A18339A4203D13B6A1A6AE5
:103CF000FB695A603B6A00229A62FB691B685A1E84
:103D0000FB691A604A4B1B68002B5FD13B6A5B69F9
:103D10007B613B6A9B683A6AD2689A603B6ADB685F
:103D20003A6A92685A607B695A683B6A04339A42DD
:103D300003D13B6ADA687B695A603B6A00225A61A8
:103D40007B691B685A1E7B691A603B6ADA6A394BC9
:103D50001B689A4203D93B6ADB6A364A13603B6AA6
:103D6000DA6A354913469B0013449B000B44043325
:103D70001B683B613B6A3A699A603B699A683B6A97
:103D8000DA603B699B683A6A04325A603B6A1A1DE2
:103D90003B699A603B6ADA6A13469B0013449B00B6
:103DA000254A1A443B6A5A613B6ADA6A2249134639
:103DB0009B0013449B000B441B68591C1E48134670
:103DC0009B0013449B00034419601BE01B4B5B6882
:103DD000BB613B6ABA69DA61BB699A683B6A1A627D
:103DE000BB699B683A6A18325A603B6A03F1180251
:103DF000BB699A603B6A114A9A62104B1B68013397
:103E00000E4A13603B6ADA6A0D4B1B68DB6A9A4202
:103E100005D901237B620B4B01221A6001E00023CC
:103E20007B627B6A18462C37BD4680BC704700BF5A
:103E3000281800200818002030130020C017002088
:103E40002C1300201418002080B489B000AF7860D3
:103E50003960594B1B68002B0BD14FF0500383F393
:103E60001188BFF36F8FBFF34F8FFB6000BF00BFA0
:103E7000FDE73B6843F000427B681A607B68DB68C3
:103E8000FB61FB69002B0BD14FF0500383F31188CA
:103E9000BFF36F8FBFF34F8FBB6000BF00BFFDE765
:103EA0007B681B69BB617B685B687A6892689A6013
:103EB0007B689B687A6852685A60BB695B687A68FD
:103EC0009A4203D17B689A68BB695A607B6800227A
:103ED0001A61BB691B685A1EBB691A60FB695B6982
:103EE0007B61FB699B68FA69D2689A60FB69DB6851
:103EF000FA6992685A607B695A68FB6904339A428E
:103F000003D1FB69DA687B695A60FB6900225A6158
:103F10007B691B685A1E7B691A60FB69DA6A274B4A
:103F20001B689A4203D9FB69DB6A244A1360FB6968
:103F3000DA6A234913469B0013449B000B44043365
:103F40001B683B61FB693A699A603B699A68FB6947
:103F5000DA603B699B68FA6904325A60FB691A1D92
:103F60003B699A60FB69DA6A13469B0013449B0025
:103F7000134A1A44FB695A61FB69DA6A104913460D
:103F80009B0013449B000B441B68591C0C481346B0
:103F90009B0013449B0003441960FB69DA6A094BD8
:103FA0001B68DB6A9A4202D9074B01221A6000BFE4
:103FB0002437BD4680BC7047281800200818002010
:103FC000301300202C1300201418002080B584B07A
:103FD00000AF78607B68002B0BD14FF0500383F368
:103FE0001188BFF36F8FBFF34F8FFB6000BF00BF1F
:103FF000FDE7FCF797F9074B1A687B681A60064BD8
:104000001A687B685A60FCF7BDF900BF1037BD46DF
:1040100080BD00BF181800200418002080B483B0B1
:1040200000AF7860064B1A687B681A60054B1A6807
:104030007B685A6000BF0C37BD4680BC704700BF2C
:10404000181800200418002080B588B000AF7860F0
:1040500039607B68002B0BD14FF0500383F311883C
:10406000BFF36F8FBFF34F8F3B6100BF00BFFDE712
:104070003B68002B0BD14FF0500383F31188BFF343
:104080006F8FBFF34F8FFB6000BF00BFFDE7FCF7F2
:1040900049F91F4B1B68BB617B685B68BA69D31A1F
:1040A0007B613B681B68B3F1FF3F02D10023FB61DA
:1040B00026E07B681A68174B1B689A420AD07B6817
:1040C0005B68BA699A4205D30123FB613B68002211
:1040D0001A6015E03B681B687A699A420BD23B680C
:1040E0001A687B69D21A3B681A607868FFF796FFF6
:1040F0000023FB6104E03B6800221A600123FB619E
:10410000FCF740F9FB6918462037BD4680BD00BF6B
:10411000041800201818002080B400AF034B0122BF
:104120001A6000BFBD4680BC704700BF1418002055
:1041300080B485B000AF78607B68002B05D07B68C9
:10414000BB60BB689B6CFB6001E00023FB60FB680D
:1041500018461437BD4680BC704780B485B000AFA8
:10416000786039607B68002B04D07B68FB60FB685B
:104170003A689A6400BF1437BD4680BC704780B56A
:1041800082B000AF786000F051F8064B1B68012B3D
:10419000F9D9054B4FF080521A60BFF34F8FBFF330
:1041A0006F8FF0E73013002004ED00E080B582B09F
:1041B00000AF00237B600CE07A6813469B00134439
:1041C0009B00124A13441846FCF774FD7B680133C8
:1041D0007B607B68372BEFD90D48FCF76BFD0D48F2
:1041E000FCF768FD0C48FCF765FD0C48FCF762FD28
:1041F0000B48FCF75FFD0B4B054A1A600A4B054A5A
:104200001A6000BF0837BD4680BD00BF30130020D4
:1042100090170020A4170020C0170020D4170020FA
:10422000EC170020B8170020BC17002080B582B022
:1042300000AF19E0FCF776F8104BDB68DB687B60B9
:104240007B6804331846FCF7BBFD0D4B1B68013B34
:104250000B4A13600B4B1B68013B0A4A1360FCF7C7
:1042600091F8786800F0FEF8064B1B68002BE1D14E
:1042700000BF00BF0837BD4680BD00BFD417002077
:1042800000180020E817002080B586B000AFF86065
:10429000B9607A60FB70FB68002B02D12C4B1B6865
:1042A00000E0FB687B61BB687A691A607B6903F197
:1042B0003402BB685A607B69DA6ABB681A617B6941
:1042C0001A6BBB68DA617B695A6CBB689A607B6960
:1042D000DA6CBB685A61BB6800229A61FB78052BD7
:1042E0001AD01B4B1B687A699A4203D1BB68002223
:1042F0001A7318E0BB68FA781A73FB78032B12D193
:10430000FFF77CF87B699B6A002B02D0BB68022216
:104310001A73FFF781F806E07869FEF785FC03461B
:104320001A46BB681A737B68002B09D07B691B6B2C
:10433000184600F061F803461A46BB681A8402E08A
:10434000BB6800221A8400BF1837BD4680BD00BF7D
:104350002C13002080B58AB000AFF860B960134616
:10436000FB7100237B62BB681B68002B3FD0BB68DE
:104370003B623B6A5B685A683B6A5A603B6A5A68B0
:104380003B6A08339A4204D13B6A5B685A683B6ACD
:104390005A603B6A5B68DB68FB61BB68BB61BB69F9
:1043A0005B685A68BB695A60BB695A68BB69083365
:1043B0009A4204D1BB695B685A68BB695A60BB69A1
:1043C0005B68DB687B617A6A1346DB0013449B0001
:1043D0001A46FB689918FB7901227869FFF754FFA8
:1043E0007B6A01337B627A69FB699A42D5D17B6A29
:1043F00018462837BD4680BD80B485B000AF7860D0
:104400000023FB6005E07B6801337B60FB680133C0
:10441000FB607B681B78A52BF5D0FB689B08FB60D5
:10442000FB689BB218461437BD4680BC704780B508
:1044300086B000AF78607B68002B02D1084B1B6808
:1044400000E07B687B617B691B6B3B613869FFF730
:10445000D3FF0346FB60FB6818461837BD4680BD96
:104460002C13002080B584B000AF78607B6893F88F
:104470005930002B08D17B681B6B1846FCF7EEF80F
:104480007868FCF7EBF819E07B6893F85930012B5A
:1044900003D17868FCF7E2F810E07B6893F85930B4
:1044A000022B0BD04FF0500383F31188BFF36F8FB3
:1044B000BFF34F8FFB6000BF00BFFDE700BF1037A9
:1044C000BD4680BD80B400AF094B1B681B68002B44
:1044D00004D1084B4FF0FF321A6005E0044B1B6813
:1044E000DB681B68034A136000BFBD4680BC704791
:1044F000B81700202018002080B483B000AF044B10
:104500001B687B607B6818460C37BD4680BC7047D3
:104510002C13002080B483B000AF0B4B1B68002B22
:1045200002D101237B6008E0084B1B68002B02D1FD
:1045300002237B6001E000237B607B6818460C3718
:10454000BD4680BC704700BF0C1800202818002012
:1045500080B586B000AF78607B683B6100237B61EB
:104560007B68002B79D03B69DA6A3E4B1B68DB6ABB
:104570009A4269D23B699B69002B06DB394B1B6869
:10458000DB6AC3F138023B699A613B6959693B694F
:10459000DA6A13469B0013449B00334A1344994242
:1045A0004AD13B6904331846FCF70AFC2D4B1B68C3
:1045B000DA6A3B69DA623B69DA6A2C4B1B689A4219
:1045C00003D93B69DB6A294A13603B69DA6A2649E9
:1045D00013469B0013449B000B4404331B68FB6091
:1045E0003B69FA689A60FB689A683B69DA60FB6825
:1045F0009B683A6904325A603B691A1DFB689A60ED
:104600003B69DA6A13469B0013449B00164A1A441E
:104610003B695A613B69DA6A134913469B001344AC
:104620009B000B441B68591C0F4813469B00134406
:104630009B000344196004E00A4B1B68DA6A3B697B
:10464000DA6201237B6108E03B69DA6C054B1B6889
:10465000DB6A9A4201D201237B617B6918461837D5
:10466000BD4680BD2C130020301300200818002008
:1046700080B588B000AF78607B68BB610023FB61C8
:104680007B68002B00F08180424B1B68BA699A421C
:104690000BD04FF0500383F31188BFF36F8FBFF33C
:1046A0004F8F3B6100BF00BFFDE7BB691B6D002B57
:1046B0000BD14FF0500383F31188BFF36F8FBFF31B
:1046C0004F8FFB6000BF00BFFDE7BB691B6D5A1E2B
:1046D000BB691A65BB69DA6ABB69DB6C9A4254D064
:1046E000BB691B6D002B50D1BB6904331846FCF726
:1046F00067FBBB69DA6CBB69DA62BB69DB6AC3F171
:104700003802BB699A61BB69DA6A234B1B689A421B
:1047100003D9BB69DB6A204A1360BB69DA6A1F49A7
:1047200013469B0013449B000B4404331B687B61BE
:10473000BB697A699A607B699A68BB69DA607B6950
:104740009B68BA6904325A60BB691A1D7B699A601A
:10475000BB69DA6A13469B0013449B000F4A1A4454
:10476000BB695A61BB69DA6A0C4913469B00134462
:104770009B000B441B68591C084813469B001344BC
:104780009B00034419600123FB61FB691846203735
:10479000BD4680BD2C1300200818002030130020D7
:1047A00080B58AB000AF786039607B683B620123D6
:1047B000FB617B68002B00F095803B6A1B6D002B32
:1047C0000BD14FF0500383F31188BFF36F8FBFF30A
:1047D0004F8F3B6100BF00BFFDE73B6ADB6C3A686F
:1047E0009A4202D93B687B6202E03B6ADB6C7B62E7
:1047F0003B6ADB6A7A6A9A4274D03B6A1B6DFA693B
:104800009A426FD1394B1B683A6A9A420BD14FF0EA
:10481000500383F31188BFF36F8FBFF34F8FFB609B
:1048200000BF00BFFDE73B6ADB6ABB613B6A7A6A97
:10483000DA623B6A9B69002B04DB7B6AC3F13802B6
:104840003B6A9A613B6A5969BA6913469B001344F3
:104850009B00274A1344994244D13B6A04331846CB
:10486000FCF7AEFA3B6ADA6A224B1B689A4203D91C
:104870003B6ADB6A1F4A13603B6ADA6A1C491346CB
:104880009B0013449B000B4404331B687B613B6A11
:104890007A699A607B699A683B6ADA607B699B688F
:1048A0003A6A04325A603B6A1A1D7B699A603B6A15
:1048B000DA6A13469B0013449B000D4A1A443B6A74
:1048C0005A613B6ADA6A0A4913469B0013449B000B
:1048D0000B441B68591C064813469B0013449B005D
:1048E0000344196000BF2837BD4680BD2C1300204B
:1048F000301300200818002080B483B000AF094BAB
:104900001B689B697B60074B1B68DA6A054B1B6859
:10491000C2F138029A617B6818460C37BD4680BCEC
:10492000704700BF2C13002080B400AF074B1B68FA
:10493000002B04D0054B1B681A6D01321A65034B1E
:104940001B681846BD4680BC704700BF2C13002072
:1049500080B586B000AFF860B9607A60FB68002B64
:104960000BD04FF0500383F31188BFF36F8FBFF369
:104970004F8F3B6100BF00BFFDE7FBF7D3FC284B27
:104980001A68FB6814339B0013445B68002B15D135
:10499000234B1A68FB681344583301221A707B6852
:1049A000002B0BD00121786800F0D0FC1D4B4FF09C
:1049B00080521A60BFF34F8FBFF36F8FFBF7E2FC9B
:1049C000FBF7B0FC164B1A68FB6814339B001344CA
:1049D0005B687B617B69002B14D0BB68002B08D01F
:1049E0000F4B1A68FB6814339B00134400225A6073
:1049F00008E00B4B19687B695A1EFB6814339B0057
:104A00000B445A60064B1A68FB6813445833002263
:104A10001A70FBF7B7FC7B6918461837BD4680BD96
:104A20002C13002004ED00E080B586B000AFF860E4
:104A3000B9607A603B60FB68002B0BD04FF05003ED
:104A400083F31188BFF36F8FBFF34F8F3B6100BFBC
:104A500000BFFDE7FBF766FC344B1A68FB681344A4
:104A600058331B78DBB2022B24D0304B1A68FB681A
:104A700014339B0013445968BB68DB431940FB683F
:104A800014339B0013445960284B1A68FB68134485
:104A9000583301221A703B6A002B0BD00121386A6F
:104AA00000F054FC224B4FF080521A60BFF34F8F3E
:104AB000BFF36F8FFBF766FCFBF734FC3B68002B02
:104AC00008D01A4B1A68FB6814339B0013445A68C9
:104AD0003B681A60154B1A68FB68134458331B78FF
:104AE000DBB2022B02D000237B6110E00F4B1A686F
:104AF000FB6814339B00134459687B68DB431940FF
:104B0000FB6814339B001344596001237B61074BFE
:104B10001A68FB681344583300221A70FBF732FC02
:104B20007B6918461837BD4680BD00BF2C13002096
:104B300004ED00E080B58EB000AFF860B9607A6037
:104B4000FB7001237B63BB68002B0BD04FF050033D
:104B500083F31188BFF36F8FBFF34F8F3B6200BFAA
:104B600000BFFDE7FB68002B0BD14FF0500383F330
:104B70001188BFF36F8FBFF34F8FFB6100BF00BF82
:104B8000FDE7FB683B63FBF7CDFB3B6C002B07D0DD
:104B90003A6BBB6814339B0013445A683B6C1A6031
:104BA0003A6BBB68134458331B7887F82F303A6B45
:104BB000BB681344583302221A70FB78042B41D887
:104BC00001A252F823F000BF654C0008DD4B00083D
:104BD000FB4B0008174C0008274C00083A6BBB68D9
:104BE00014339B0013445A687B681A43396BBB68C3
:104BF00014339B000B445A6037E03A6BBB681433A4
:104C00009B0013445B685A1C396BBB6814339B00D0
:104C10000B445A6029E03A6BBB6814339B00134481
:104C20007A685A6021E097F82F30022B07D03A6B50
:104C3000BB6814339B0013447A685A6015E0002364
:104C40007B6312E04D4B1B68002B0DD04FF05003DF
:104C500083F31188BFF36F8FBFF34F8FBB6100BF2A
:104C600000BFFDE700BF00E000BF97F82F30012B29
:104C70007DD13B6B5B69BB623B6B9B683A6BD268D7
:104C80009A603B6BDB683A6B92685A60BB6A5A6801
:104C90003B6B04339A4203D13B6BDA68BB6A5A60C0
:104CA0003B6B00225A61BB6A1B685A1EBB6A1A60C2
:104CB0003B6BDA6A324B1B689A4203D93B6BDB6A67
:104CC0002F4A13603B6BDA6A2E4913469B0013444C
:104CD0009B000B4404331B687B623B6B7A6A9A60CF
:104CE0007B6A9A683B6BDA607B6A9B683A6B04323A
:104CF0005A603B6B1A1D7B6A9A603B6BDA6A1346FB
:104D00009B0013449B001F4A1A443B6B5A613B6B48
:104D1000DA6A1C4913469B0013449B000B441B6832
:104D2000591C184813469B0013449B000344196008
:104D30003B6B9B6A002B0BD04FF0500383F3118821
:104D4000BFF36F8FBFF34F8F7B6100BF00BFFDE7E5
:104D50003B6BDA6A0C4B1B68DB6A9A4207D90B4B38
:104D60004FF080521A60BFF34F8FBFF36F8FFBF786
:104D700009FB7B6B18463837BD4680BD0418002000
:104D800008180020301300202C13002004ED00E050
:104D900080B592B000AFF860B9607A60FB70012313
:104DA0007B64FB68002B0BD14FF0500383F3118819
:104DB000BFF36F8FBFF34F8FBB6200BF00BFFDE734
:104DC000BB68002B0BD04FF0500383F31188BFF367
:104DD0006F8FBFF34F8F7B6200BF00BFFDE7FBF714
:104DE0005FFBFB683B64EFF311824FF0500383F3EA
:104DF0001188BFF36F8FBFF34F8F3A62FB613B6A3D
:104E0000FB633B6D002B07D03A6CBB6814339B00EF
:104E100013445A683B6D1A603A6CBB6813445833AC
:104E20001B7887F83B303A6CBB6813445833022236
:104E30001A70FB78042B41D801A252F823F000BF6E
:104E4000DD4E0008554E0008734E00088F4E0008D6
:104E50009F4E00083A6CBB6814339B0013445A6899
:104E60007B681A43396CBB6814339B000B445A604F
:104E700037E03A6CBB6814339B0013445B685A1CE0
:104E8000396CBB6814339B000B445A6029E03A6CC0
:104E9000BB6814339B0013447A685A6021E097F88A
:104EA0003B30022B07D03A6CBB6814339B00134491
:104EB0007A685A6015E000237B6412E0614B1B683E
:104EC000002B0DD04FF0500383F31188BFF36F8F89
:104ED000BFF34F8FBB6100BF00BFFDE700BF00E025
:104EE00000BF97F83B30012B40F0A0803B6C9B6AE1
:104EF000002B0BD04FF0500383F31188BFF36F8F5B
:104F0000BFF34F8F7B6100BF00BFFDE74E4B1B68B7
:104F1000002B5FD13B6C5B693B633B6C9B683A6CDD
:104F2000D2689A603B6CDB683A6C92685A603B6B63
:104F30005A683B6C04339A4203D13B6CDA683B6B92
:104F40005A603B6C00225A613B6B1B685A1E3B6BDC
:104F50001A603B6CDA6A3D4B1B689A4203D93B6C82
:104F6000DB6A3A4A13603B6CDA6A394913469B00A4
:104F700013449B000B4404331B68FB623B6CFA6ACE
:104F80009A60FB6A9A683B6CDA60FB6A9B683A6CD1
:104F900004325A603B6C1A1DFB6A9A603B6CDA6AF9
:104FA00013469B0013449B00294A1A443B6C5A61E8
:104FB0003B6CDA6A264913469B0013449B000B4462
:104FC0001B68591C224813469B0013449B00034452
:104FD00019601BE01F4B5B687B633B6C7A6BDA618B
:104FE0007B6B9A683B6C1A627B6B9B683A6C1832DD
:104FF0005A603B6C03F118027B6B9A603B6C154A5C
:105000009A62144B1B680133124A13603B6CDA6AD4
:10501000114B1B68DB6A9A4208D97B6D002B02D0CA
:105020007B6D01221A600D4B01221A60FB6B3B6104
:105030003B6983F3118800BF7B6C18464837BD4637
:1050400080BD00BF04180020281800200818002088
:1050500030130020C01700202C130020141800204B
:1050600080B590B000AFF860B9607A60FB68002B43
:105070000BD14FF0500383F31188BFF36F8FBFF351
:105080004F8F7B6200BF00BFFDE7BB68002B0BD0DA
:105090004FF0500383F31188BFF36F8FBFF34F8F2F
:1050A0003B6200BF00BFFDE7FBF7FAF9FB68FB635B
:1050B000EFF311824FF0500383F31188BFF36F8F2A
:1050C000BFF34F8FFA61BB61FB69BB63FA6BBB68CF
:1050D000134458331B7887F83730FA6BBB68134496
:1050E000583302221A70FA6BBB6814339B001344C6
:1050F0005B685A1CF96BBB6814339B000B445A6005
:1051000097F83730012B40F0A080FB6B9B6A002B97
:105110000BD04FF0500383F31188BFF36F8FBFF3B1
:105120004F8F7B6100BF00BFFDE74D4B1B68002B1D
:105130005FD1FB6B5B69FB62FB6B9B68FA6BD268B0
:105140009A60FB6BDB68FA6B92685A60FB6A5A687C
:10515000FB6B04339A4203D1FB6BDA68FB6A5A603B
:10516000FB6B00225A61FB6A1B685A1EFB6A1A60BD
:10517000FB6BDA6A3B4B1B689A4203D9FB6BDB6A19
:10518000384A1360FB6BDA6A374913469B001344B5
:105190009B000B4404331B68BB62FB6BBA6A9A60CA
:1051A000BB6A9A68FB6BDA60BB6A9B68FA6B043275
:1051B0005A60FB6B1A1DBB6A9A60FB6BDA6A134676
:1051C0009B0013449B00284A1A44FB6B5A61FB6BFB
:1051D000DA6A254913469B0013449B000B441B6865
:1051E000591C214813469B0013449B00034419603B
:1051F0001BE01E4B5B683B63FB6B3A6BDA613B6BFE
:105200009A68FB6B1A623B6B9B68FA6B18325A60A8
:10521000FB6B03F118023B6B9A60FB6B134A9A62BB
:10522000124B1B680133114A1360FB6BDA6A104B97
:105230001B68DB6A9A4208D97B68002B02D07B6826
:1052400001221A600B4B01221A60BB6B3B613B6968
:1052500083F3118800BF00BF4037BD4680BD00BF4B
:10526000281800200818002030130020C017002044
:105270002C1300201418002080B586B000AF786091
:1052800039603B68002B0BD04FF0500383F311883B
:10529000BFF36F8FBFF34F8FFB6000BF00BFFDE711
:1052A0007B68002B02D1104B1B6800E07B683B61E0
:1052B000FBF738F83A693B68134458331B78DBB284
:1052C000022B08D13A693B681344583300221A7004
:1052D00001237B6101E000237B61FBF753F87B69CD
:1052E00018461837BD4680BD2C13002080B586B007
:1052F00000AFF860B9607A60FB68002B02D1124BF6
:105300001B6800E0FB687B61FBF70CF87A69BB68FF
:1053100014339B0013445B683B617A69BB681433A8
:105320009B0013445A687B68DB431A407969BB6869
:1053300014339B000B445A60FBF724F83B69184672
:105340001837BD4680BD00BF2C13002080B586B045
:1053500000AF786039602E4B1B687B612D4B1B685A
:1053600004331846FBF72CFD7B68B3F1FF3F24D1D3
:105370003B68002B21D0284B5B683B61254B1B68A9
:105380003A699A60234B1B683A699268DA60214B4C
:105390001A683B699B6804325A601E4B1B681A1DD1
:1053A0003B699A601B4B1B681B4A5A611A4B1B686E
:1053B0000133194A136000BF26E07A697B68134401
:1053C000FB60144B1B68FA685A60FA687B699A4262
:1053D00009D2124B1A680F4B1B680433194610464A
:1053E000FBF7B6FC10E00E4B1A680A4B1B6804333F
:1053F00019461046FBF7ACFC0A4B1B68FA689A4248
:1054000002D2084AFB68136000BF1837BD4680BD52
:10541000041800202C130020EC170020BC170020DB
:10542000B81700202018002080B58AB004AF0023F0
:105430007B6100F03FFC1D4B1B68002B21D000233B
:10544000FB600023BB603A1D07F1080107F10C0364
:105450001846FBF7EFF97968BB68FA680292019386
:105460000223009300230A4611491248FDF7D6F89B
:105470000346114A1360104B1B68002B01D0012317
:105480007B617B69002B0BD14FF0500383F31188B4
:10549000BFF36F8FBFF34F8F3B6100BF00BFFDE7CE
:1054A0007B6918461837BD4680BD00BF5C180020D8
:1054B00064620008E55800086018002080B588B0D4
:1054C00002AFF860B9607A603B602C20FBF728F8E7
:1054D00078617B69002B0DD07B69002283F828203E
:1054E0007B6901933B6A00933B687A68B968F86806
:1054F00000F045F87B6918461837BD4680BD80B579
:105500008AB002AFF860B9607A603B602C233B61DF
:105510003B692C2B0BD04FF0500383F31188BFF362
:105520006F8FBFF34F8FBB6100BF00BFFDE73B69CB
:10553000FB6A002B0BD14FF0500383F31188BFF3AC
:105540006F8FBFF34F8F7B6100BF00BFFDE7FB6A2A
:10555000FB61FB69002B0DD0FB69022283F8282038
:10556000FB690193BB6A00933B687A68B968F86885
:1055700000F005F8FB6918462037BD4680BD80B5B0
:1055800086B000AFF860B9607A603B60BB68002B02
:105590000BD14FF0500383F31188BFF36F8FBFF32C
:1055A0004F8F7B6100BF00BFFDE700F083FB7B6A8C
:1055B000FA681A607B6ABA689A617B6A3A68DA614B
:1055C0007B6A3A6A1A627B6A04331846FBF791FBDE
:1055D0007B68002B08D07B6A93F8283043F00403E3
:1055E000DAB27B6A83F8282000BF1837BD4680BD39
:1055F00080B58AB000AFF860B9607A603B60002384
:105600007B62FB68002B0BD14FF0500383F31188B2
:10561000BFF36F8FBFF34F8F3B6200BF00BFFDE74B
:10562000194B1B68002B2AD0BB683B617B687B61F0
:10563000FB68BB61BB68052B18DCFEF76BFF0346FC
:10564000022B09D1104B186807F1100100233A6BA7
:10565000FBF7AFFE786212E00B4B186807F1100100
:1056600000230022FBF7A5FE786208E0064B1868CD
:1056700007F1100100233A68FBF79EFF78627B6A0E
:1056800018462837BD4680BD5C18002080B483B022
:1056900000AF0B4B1B68002B0BD14FF0500383F373
:1056A0001188BFF36F8FBFF34F8F7B6000BF00BFC8
:1056B000FDE7034B1B6818460C37BD4680BC70479E
:1056C0006018002080B485B000AF78607B68FB6014
:1056D0007B68002B0BD14FF0500383F31188BFF38D
:1056E0006F8FBFF34F8FBB6000BF00BFFDE7FB684C
:1056F0009B6918461437BD4680BC704780B584B09E
:1057000000AF786039607B68FB607B68002B0BD151
:105710004FF0500383F31188BFF36F8FBFF34F8FA8
:10572000BB6000BF00BFFDE7FAF7FCFD3B68002B44
:1057300009D0FB6893F8283043F00403DAB2FB6821
:1057400083F8282008E0FB6893F8283023F004034E
:10575000DAB2FB6883F82820FAF714FE00BF10378E
:10576000BD4680BD80B586B000AF78607B683B6188
:105770007B68002B0BD14FF0500383F31188BFF3EC
:105780006F8FBFF34F8FFB6000BF00BFFDE7FAF7DD
:10579000C9FD3B6993F8283003F00403002B02D1C4
:1057A00000237B6101E001237B61FAF7EBFD7B695C
:1057B00018461837BD4680BD80B582B000AF78600E
:1057C0007868FFF7CFFF034618460837BD4680BD0F
:1057D00080B487B000AF78607B687B617B68002B0A
:1057E0000BD14FF0500383F31188BFF36F8FBFF3DA
:1057F0004F8FFB6000BF00BFFDE77B695B683B61CB
:105800003B6918461C37BD4680BC704780B485B0E4
:1058100000AF78607B68FB607B68002B0BD14FF09A
:10582000500383F31188BFF36F8FBFF34F8FBB60BB
:1058300000BF00BFFDE7FB681B6818461437BD4674
:1058400080BC704780B584B000AFF860B9607A6002
:1058500008E0FB689B69BA681344BB60FB681B6A7D
:10586000F8689847FB689A69BB68D118BB687A6882
:10587000F86800F0D9F80346002BEAD100BF00BF5A
:105880001037BD4680BD80B584B000AF7860396008
:10589000134B1B68DB68DB68FB60FB68043318464E
:1058A000FBF78EFAFB6893F8283003F00403002B13
:1058B00005D03A687968F868FFF7C4FF08E0FB682C
:1058C00093F8283023F00103DAB2FB6883F828202C
:1058D000FB681B6AF868984700BF1037BD4680BD5B
:1058E0005418002080B584B000AF786007F1080339
:1058F000184600F057F8F860BB681946F86800F0E1
:1059000004F800F0D3F800BFF0E780B584B000AF32
:1059100078603960FDF772FD07F10803184600F062
:1059200063F8F860BB68002B30D13B68002B0AD1CC
:105930007A68FB689A4206D8FDF76EFDF9687868C8
:10594000FFF7A1FF24E03B68002B08D0124B1B6837
:105950001B68002B01D1012300E000233B600F4BAB
:1059600018687A68FB68D31A3A681946FCF722FE71
:10597000FDF752FD0346002B0AD1094B4FF0805230
:105980001A60BFF34F8FBFF36F8F01E0FDF744FD47
:1059900000BF1037BD4680BD581800205C1800209D
:1059A00004ED00E080B485B000AF78600D4B1B685B
:1059B0001B68002B01D1012200E000227B681A60E5
:1059C0007B681B68002B05D1064B1B68DB681B68D6
:1059D000FB6001E00023FB60FB6818461437BD46FE
:1059E00080BC70475418002080B584B000AF786048
:1059F000FDF710FEF8600B4B1B68FA689A4205D25F
:105A000000F032F97B6801221A6002E07B68002214
:105A10001A60044AFB681360FB6818461037BD46DD
:105A200080BD00BF6418002080B586B000AFF8606C
:105A3000B9607A603B6000237B61FB68BA685A609A
:105A4000FB68FA681A61BA687B689A4212D87A6869
:105A50003B68D21AFB689B699A4202D301237B619F
:105A60001BE0104B1A68FB68043319461046FBF71D
:105A70006FF912E07A683B689A4206D2BA683B68CE
:105A80009A4202D301237B6107E0074B1A68FB6847
:105A9000043319461046FBF75BF97B691846183743
:105AA000BD4680BD581800205418002080B58AB02B
:105AB00000AFC7E07B68002B19DA3B1D04337B6223
:105AC0007B6A002B0BD14FF0500383F31188BFF397
:105AD0006F8FBFF34F8FBB6100BF00BFFDE77B6AD5
