:020000040800F2
:10000000005000208DE00008D5E00008D5E0000891
:10001000D5E00008D5E00008D5E0000800000000A9
:10002000000000000000000000000000C101000806
:10003000D5E0000800000000D903000827040008EC
:10004000D5E00008D5E00008D5E00008D5E00008BC
:10005000D5E00008D5E00008D5E00008D5E00008AC
:10006000D5E00008D5E00008D5E00008D5E000089C
:10007000D5E00008D5E00008D5E00008D5E000088C
:10008000D5E00008D5E00008D5E00008D5E000087C
:10009000D5E00008D5E00008D5E00008D5E000086C
:1000A000D5E0000855100008D5E00008D5E00008AC
:1000B000D5E00008D5E00008D5E00008D5E000084C
:1000C000D5E00008D5E00008D5E00008D5E000083C
:1000D000D5E00008D5E00008D5E00008D5E000082C
:1000E000D5E00008D5E00008D5E0000800000000D9
:1000F0000000000000000000000000000000000000
:0C01000000000000000000005FF808F1A3
:1001100080B485B000AFF860B9607A60FB68043BDA
:10012000FB60FB684FF080721A60FB68043BFB6069
:10013000BB6823F00102FB681A60FB68043BFB60AC
:10014000084AFB681A60FB68143BFB607A68FB682E
:100150001A60FB68203BFB60FB6818461437BD46FD
:1001600080BC70476901000880B485B000AF0023EF
:100170007B60124B1B68B3F1FF3F0BD04FF0500375
:1001800083F31188BFF36F8FBFF34F8FFB6000BF06
:1001900000BFFDE74FF0500383F31188BFF36F8F6B
:1001A000BFF34F8FBB6000BF00BF7B68002BFCD04C
:1001B00000BF00BF1437BD4680BC70470000002060
:1001C000074B19680868B0E8F00F80F30988BFF39F
:1001D0006F8F4FF0000080F311884EF00D0E7047C6
:1001E000001D002000BF06480068006880F30888F2
:1001F00062B661B6BFF34F8FBFF36F8F00DF00BFF2
:1002000008ED00E000BF80B584B000AF324BFB606A
:10021000FB681B78DBB27B60FB68FF221A70FB680F
:100220001B78DBB2FB70FB78DBB203F05003DAB271
:100230002A4B1A702A4B07221A6009E0284B1B68C8
:10024000013B274A1360FB78DBB25B00DBB2FB703B
:10025000FB78DBB203F08003802BEFD0204B1B68D0
:10026000C3F10703042B0BD04FF0500383F3118825
:10027000BFF36F8FBFF34F8FBB6000BF00BFFDE7C1
:10028000174B1B681B02164A1360154B1B6803F4BF
:10029000E063134A13607B68DAB2FB681A70114B93
:1002A0001B68104A43F4700313600E4B1B680D4A21
:1002B00043F07043136000F0D9F80B4B00221A6032
:1002C000FFF791FF04F026FAFFF74EFF00231846D0
:1002D0001037BD4680BD00BF00E400E0D40100201F
:1002E000D801002020ED00E00000002080B483B0A1
:1002F00000AF0B4B1B68B3F57A7F0BD04FF0500368
:1003000083F31188BFF36F8FBFF34F8F7B6000BF04
:1003100000BFFDE700BF0C37BD4680BC704700BF83
:100320000000002080B483B000AF4FF0500383F38F
:100330001188BFF36F8FBFF34F8F7B6000BF0F4BF0
:100340001B6801330D4A13600C4B1B68012B10D145
:100350000B4B1B68DBB2002B0BD04FF0500383F329
:100360001188BFF36F8FBFF34F8F3B6000BF00BF9B
:10037000FDE700BF0C37BD4680BC70470000002081
:1003800004ED00E080B483B000AF124B1B68002B7B
:100390000BD14FF0500383F31188BFF36F8FBFF37E
:1003A0004F8F7B6000BF00BFFDE70A4B1B68013B1E
:1003B000084A1360074B1B68002B05D100233B60E4
:1003C0003B6883F3118800BF00BF0C37BD4680BC7B
:1003D000704700BF00000020EFF30980BFF36F8F6C
:1003E0000F4B1A6820E9F00F10602DE908404FF01C
:1003F000500080F3118804F08DF94FF0000080F375
:100400001188BDE8084019680868B0E8F00F80F36B
:100410000988BFF36F8F7047AFF30080AFF30080A0
:10042000001D002000BF80B582B000AF4FF0500328
:1004300083F31188BFF36F8FBFF34F8F7B6000BFD3
:1004400004F050F80346002B03D0074B4FF08052C6
:100450001A6000233B603B6883F3118800BF00BF34
:100460000837BD4680BD00BF04ED00E080B400AF9A
:10047000084B00221A60084B00221A60074B48F60E
:100480009F421A60034B07221A6000BFBD4680BC22
:10049000704700BF10E000E018E000E014E000E06A
:1004A00080B485B000AFEFF30583FB60FB680F2BD2
:1004B00015D9174AFB6813441B78FB72154B1B7840
:1004C000FA7A9A420BD24FF0500383F31188BFF3AC
:1004D0006F8FBFF34F8F7B6000BF00BFFDE70E4BF8
:1004E0001B6803F4E0620D4B1B689A420BD94FF076
:1004F000500383F31188BFF36F8FBFF34F8F3B60BF
:1005000000BF00BFFDE700BF1437BD4680BC704789
:10051000F0E300E0D40100200CED00E0D801002061
:1005200080B58AB000AF78600023FB6103F0C6FDA0
:10053000464B1B68002B04D100F03CF9434B0122D1
:100540001A607B68002B13D008231A467B6803F0DF
:100550000703D31A08337B617B69DB437A689A42CD
:1005600004D87A687B6913447B6001E000237B60D8
:100570007B68002B63DB7B68002B60D0344B1B68EF
:100580007A689A425BD8334B3B62324B1B687B6282
:1005900004E07B6A3B627B6A1B687B627B6A5B6808
:1005A0007A689A4203D97B6A1B68002BF1D17B6A77
:1005B000294A934243D03B6A1B6808221344FB61DB
:1005C0007B6A1A683B6A1A607B6A5A687B68D31A2E
:1005D00008225200934222D97A6A7B6813443B6115
:1005E0007B6A5A687B68D21A3B695A607B6A7A6870
:1005F0005A603B695B68FB60164BBB6102E0BB69FC
:100600001B68BB61BB691B685B68FA689A42F6D8D5
:10061000BB691A683B691A60BB693A691A600C4B7E
:100620001A687B6A5B68D31A094A13607B6A5B6845
:1006300043F000427B6A5A607B6A00221A6003F032
:100640004BFDFB6918462837BD4680BDEC150020E0
:1006500004000020DC150020E415002080B588B0DF
:1006600000AF78607B68BB617B68002B59D00823A2
:100670005B42BA691344BB61BB697B617B695B68A0
:10068000002B0BDB4FF0500383F31188BFF36F8F08
:10069000BFF34F8FFB6000BF00BFFDE77B691B68A6
:1006A000002B0BD04FF0500383F31188BFF36F8FF3
:1006B000BFF34F8FBB6000BF00BFFDE77B695B6886
:1006C000DB0F03F00103DBB2002B2AD07B691B6830
:1006D000002B26D17B695B6823F000427B695A605E
:1006E00003F0ECFC7B695B683B61104BFB6102E053
:1006F000FB691B68FB61FB691B685B683A699A428E
:10070000F6D8FB691A687B691A60FB697A691A6016
:100710007B695A68064B1B681344054A136003F053
:10072000DBFC00BF2037BD4680BD00BFDC150020CC
:100730000400002080B400AF024B1B681846BD4681
:1007400080BC70470400002080B400AF00BFBD46ED
:1007500080BC704780B584B000AF786039600023FA
:10076000FB607B68002B09D04FF0FF327B68B2FB47
:10077000F3F33A689A4201D9012300E00023002BE9
:1007800013D17B683A6802FB03F31846FFF7C8FEF3
:10079000F860FB68002B08D07B683A6802FB03F323
:1007A0001A460021F86808F07DFAFB6818461037F1
:1007B000BD4680BD80B483B000AF0F4B23F007036C
:1007C0007B600E4A7B6813600C4B00225A600C4B16
:1007D00041F2F8325A600A4B00221A607B683B6093
:1007E0003B6841F2F8325A603B68054A1A6000BF24
:1007F0000C37BD4680BC7047E3010020DC150020AB
:10080000E415002080B485B000AFF860B9607A606C
:10081000FB68064A1A60BB68054A1A607B6880223A
:100820001A6000BF1437BD4680BC70470016002018
:100830005C16002080B485B000AFF860B9607A60C3
:10084000FB68074A1A60BB68064A1A607B684FF467
:1008500080721A6000BF1437BD4680BC704700BF6D
:100860005C180020B818002080B400AF00BF184604
:10087000BD4680BC704780B582B000AF7860064B43
:10088000DB68054A83F00403D3604FF47A7002F00A
:10089000F5FF00BFF3E700BF000C014080B584B056
:1008A00000AF78601E4B186842F2107301220021DD
:1008B00000F02BFD1B4B1B6842F21071184601F033
:1008C0001BFF194800F08EFC11E0184B1B6807F164
:1008D0000C014FF0FF32184601F02CFEFB68184661
:1008E00006F0C0FA02460B46114800F07BFC0F4BA5
:1008F0001B68184602F0EAF90346002BE5D1FB68B5
:10090000184606F0AFFA02460B460A4800F06AFCA9
:10091000044B186800230022002101F0AAFBC1E764
:10092000F8150020FC15002058E10008F4150020FF
:1009300064E100086CE1000880B584B000AF786025
:10094000FB680133FB60FB68092B07DD0023FB60BC
:100950000B4B1B680121184600F0C9FE00F0D2F8CD
:100960000346084A1360084B1868002342F21072CD
:10097000044901F07EFB4FF4FF7002F07FFFDFE7D8
:10098000F8150020F0150020F415002080B582B085
:1009900000AF78600B4B1B6842F21071184601F0F3
:1009A000ABFE094800F01EFC064B1868002300222D
:1009B000002101F05EFB4FF4FA7002F05FFF00BF10
:1009C000E8E700BFFC15002074E1000880B586B0A0
:1009D00002AFFFF749FF00F0F3F900F07FF900F0F4
:1009E0005FF800F0F5FA00F04BFB07F10C03019300
:1009F000002300930023C8221D491E4802F0D3FCA7
:100A000007F108030193012300930023C8221A4928
:100A10001A4802F0C8FC3B1D0193012300930023F8
:100A20004FF496721649174802F0BDFC3B460193FD
:100A3000012300930023C8221349144802F0B3FC99
:100A400000220421142001F038F90346104A1360F3
:100A500000F041FC03460F4A1360012001F0BDF98C
:100A600003460D4A136003F0A5FA00BFFDE700BF7F
:100A700088E100087708000890E100089D08000858
:100A800098E1000839090008A0E100088D09000874
:100A9000F4150020F8150020FC15002000000000CF
:100AA00080B500AF092000F0E7F9154BDB68144A68
:100AB00043F4E013D360124B9B6B114A23F44013B1
:100AC00093630F4B0E4A9B6B93630D4B9B6B0C4ACE
:100AD00023F4782393630A4B9B6B094A43F4002366
:100AE0009363074B9B68064A43F400039360044BEF
:100AF0009B68034A43F00103936000BF80BD00BFC1
:100B00000024014080B584B000AF4FF00003FB60CB
:100B10002D4B9B682C4A43F4E04393602A4B9B681F
:100B2000294A43F400439360274B9B68264A43F4C9
:100B30000013936000BF244B1B6803F00403002BD9
:100B4000F9D0214B1B68204A23F0040313601E4B8D
:100B5000DB6B7B817B89184606F072F916A3D3E91B
:100B6000002306F0D7F902460B461046194614A397
:100B7000D3E9002306F0F8FA02460B461046194660
:100B800006F0DAFB0346FB601049F86806F028FC23
:100B900003460F49184606F0E1FD03460D49184685
:100BA00006F020FC03467B607B6818461037BD4684
:100BB00080BD00BFAFF300800000000000C8A94066
:100BC0000000000000FEAF400024014000C0B2441D
:100BD00000002C420000C84180B582B000AF4FF049
:100BE00000037B60224B9B68214A43F4E0439360FF
:100BF0001F4B9B681E4A43F4004393601C4B9B6849
:100C00001B4A43F40013936000BF194B1B6803F0A9
:100C10000403002BF9D0164B1B68154A23F004037C
:100C20001360134BDB6B7B807B88184606F008F95A
:100C30004FF000020F4B06F06DF902460B461046CE
:100C4000194609A3D3E9002306F08EFA02460B46A3
:100C50001046194606F070FB03467B607B68184619
:100C60000837BD4680BD00BF0000000000FEAF4059
:100C7000002401400000084080B500AF092000F0CA
:100C8000FBF8154BDB68144A43F46063D360124BE6
:100C90009B6B114A23F4401393630F4B0E4A9B6BDB
:100CA00093630D4B9B6B0C4A23F4782393630A4B9D
:100CB0009B6B094A43F4C0339363074B9B68064A16
:100CC00043F4A0039360044B9B68034A43F0010381
:100CD000936000BF80BD00BF0024014080B500AF1D
:100CE000032000F0C9F8204B1B681F4A23F47063EF
:100CF00013601D4B1B681C4A43F4807313601A4B2E
:100D00005B68194A23F00F035360174B5B68164A60
:100D100043F001035360144B5B68134A23F0F00364
:100D20005360114B5B68104A43F0100353600E4B45
:100D3000DB680D4A43F48073D3600B4BDB680A4ACF
:100D400043F40073D360042000F096F8074B5B680F
:100D5000064A23F070635360044B5B68034A43F018
:100D60008073536000BF80BD000C01400010014043
:100D700080B582B000AF7860064BDB68054A83F42B
:100D80008073D360786800F04DF900BF0837BD4626
:100D900080BD00BF000C014080B582B000AF78601C
:100DA000064BDB68054A83F40073D360786800F073
:100DB00039F900BF0837BD4680BD00BF000C0140B7
:100DC00080B400AF1F4B00221A601E4B1B681D4AE7
:100DD00043F48033136000BF1A4B1B6803F40033E5
:100DE000002BF9D0174B5B68164A43F0020353609F
:100DF000144B5B68134A43F480335360114B5B68B8
:100E0000104A43F4E01353600F4B1B680E4A43F043
:100E1000020313600B4B5B680A4A43F08003536084
:100E2000084B1B68074A43F08073136000BF054BF3
:100E30001B6803F00073002BF9D000BF00BFBD4654
:100E400080BC7047001002400020024080B483B094
:100E500000AF0346FB71074BDB69FA79012101FA08
:100E600002F21146034A0B43D36100BF0C37BD4663
:100E700080BC70470010024080B483B000AF0346CE
:100E8000FB71074B9B69FA79012101FA02F21146C5
:100E9000034A0B43936100BF0C37BD4680BC7047CB
:100EA0000010024080B483B000AF0346FB71074BD3
:100EB0005B69FA79012101FA02F21146034A0B43F8
:100EC000536100BF0C37BD4680BC70470010024024
:100ED00080B483B000AF0346FB71084BDB69FA793D
:100EE000012101FA02F2D2431146044A0B40D361B8
:100EF00000BF0C37BD4680BC704700BF00100240E9
:100F000080B483B000AF0346FB71084B9B69FA794C
:100F1000012101FA02F2D2431146044A0B409361C7
:100F200000BF0C37BD4680BC704700BF00100240B8
:100F300080B483B000AF0346FB71084B5B69FA795C
:100F4000012101FA02F2D2431146044A0B405361D7
:100F500000BF0C37BD4680BC704700BF0010024088
:100F600080B400AF0C4B0D4A5A600B4B1B680A4A09
:100F700043F004031360084B1B68074A43F0020365
:100F80001360054B1B68044A43F00103136000BF64
:100F9000BD4680BC704700BF10E000E04019010072
:100FA00080B485B000AF7860084B1B68FB6000BF61
:100FB000064B1A68FB68D31A7A689A42F8D800BFC1
:100FC00000BF1437BD4680BC704700BFB81C00206E
:100FD00080B500AF0B20FFF74FFF104B23229A6222
:100FE0000E4B4FF47A72DA620C4B1B680B4A23F0FB
:100FF00010031360094B1B68084A43F00103136098
:10100000064BDB68054A43F00103D360044B1B68C1
:10101000034A43F00073136000BF80BD002C014001
:1010200000E100E080B485B000AF7860084B1B6839
:10103000FB6000BF064B1A68FB68D31A7A689A42B5
:10104000F8D800BF00BF1437BD4680BC704700BF52
:10105000BC1C002080B400AF074B1B680133064A5C
:101060001360064B1B69054A23F00103136100BF9F
:10107000BD4680BC704700BFBC1C0020002C014056
:1010800080B500AF0220FFF7F7FE264B5B68254ACC
:1010900023F0F0035360234B5B68224A43F0900334
:1010A0005360204B5B681F4A23F4706353601D4BF1
:1010B0005B681C4A43F4006353601A4BDB68194AAF
:1010C00043F48063D360184B5B68174A23F0040332
:1010D00053600E20FFF7D0FE144B40F6A6629A60D4
:1010E000124BDB68114A23F48063D3600F4BDB683B
:1010F0000E4A23F48053D3600C4BDB680B4A43F455
:10110000005343F00C03D360084BDB68074A43F0FD
:101110002003D360064B5B68054A43F0200353600D
:1011200000BF80BD000801400000014000380140C0
:1011300000E100E080B483B000AF0346FB7100BF64
:101140000D4B1B6803F08003002BF9D00A4AFB7992
:10115000536000BF084B1B6803F04003002BF9D01D
:10116000054B1B68044A23F04003136000BF0C3793
:10117000BD4680BC704700BF0038014080B584B0D8
:1011800000AF7860786807F039FF0346BB60002342
:10119000FB6009E0FB687A6813441B781846FFF788
:1011A000C9FFFB680133FB60FA68BB689A42F1DB58
:1011B00000BF00BF1037BD4680BD80B483B000AF14
:1011C00000BF074B1B6803F02003002BF9D0044B32
:1011D0005B68FB71FB7918460C37BD4680BC7047D5
:1011E000003801400FB480B5ADF5826D00AF00232B
:1011F000C7F8083407F21C4207F58263A3F20C43D8
:101200001A6007F58263A3F20C4307F108001A681D
:10121000D7F8181407F012FDC7F808040023C7F820
:101220000C340FE007F58263A3F58162D7F80C3424
:1012300013441B781846FFF77DFFD7F80C340133B1
:10124000C7F80C34D7F80C24D7F808349A42E9DBF5
:1012500000BF00BF07F58267BD46BDE8804004B00F
:10126000704700BF80B586B000AF78607B68002B08
:101270000BD14FF0500383F31188BFF36F8FBFF38F
:101280004F8F3B6100BF00BFFDE72023BB60BB6801
:10129000202B0BD04FF0500383F31188BFF36F8FD7
:1012A000BFF34F8FFB6000BF00BFFDE77B687B6132
:1012B0007B69002B0AD07B6900221A607B690433AA
:1012C000184600F057FB7B6901221A777B691846A4
:1012D0001837BD4680BD80B582B000AF2020FFF733
:1012E0001FF978607B68002B0AD07B6800221A60A7
:1012F0007B680433184600F03DFB7B6800221A77B8
:101300007B6818460837BD4680BD80B58CB000AFFD
:10131000F860B9607A603B60FB68BB6200237B6267
:101320007B68B3F1807F0BD34FF0500383F31188B8
:10133000BFF36F8FBFF34F8FBB6100BF00BFFDE7EF
:101340007B68002B0BD14FF0500383F31188BFF360
:101350006F8FBFF34F8F7B6100BF00BFFDE703F0CE
:1013600039FF0346002B02D13B68002B01D101233A
:1013700000E00023002B0BD14FF0500383F31188C2
:10138000BFF36F8FBFF34F8F3B6100BF00BFFDE71F
:1013900002F094FEBB6A1B683B62B968F86800F013
:1013A000A6F93A6ABB681A437B6813407A689A4286
:1013B0000DD13A6ABB681343FB62BB6A1A687B684B
:1013C000DB431A40BB6A1A6000233B6013E03B68B2
:1013D000002B0BD0BB6A181D7B6843F0A0633A68F2
:1013E000194603F01BFA0023FB6204E0BB6A1B688A
:1013F000FB6201237B6202F06FFEF8613B68002B09
:101400002CD0FB69002B07D1174B4FF080521A608C
:10141000BFF34F8FBFF36F8F04F0CEF8F862FB6A13
:1014200003F00073002B15D1FEF77CFFBB6A1B682D
:10143000FB62FA6A7B6813407A689A4206D1BB6AFB
:101440001A687B68DB431A40BB6A1A60FEF79AFF92
:1014500001237B62FB6A23F07F43FB62FB6A184631
:101460003037BD4680BD00BF04ED00E080B590B0D0
:1014700000AFF860B9607A603B60FB687B63002373
:10148000BB6300233B63FB68002B0BD14FF0500381
:1014900083F31188BFF36F8FBFF34F8F3B6200BFA1
:1014A00000BFFDE7BB68B3F1807F0BD34FF0500363
:1014B00083F31188BFF36F8FBFF34F8FFB6100BFC2
:1014C00000BFFDE7BB68002B0BD14FF0500383F347
:1014D0001188BFF36F8FBFF34F8FBB6100BF00BF99
:1014E000FDE703F077FE0346002B02D1BB6C002B17
:1014F00001D1012300E00023002B0BD14FF050035A
:1015000083F31188BFF36F8FBFF34F8F7B6100BFF1
:1015100000BFFDE702F0D2FD7B6B1B68FB623A68FF
:10152000B968F86A00F0CEF9B862BB6A002B0ED039
:10153000FB6AFB630023BB647B68002B28D07B6BBA
:101540001A68BB68DB431A407B6B1A6020E0BB6CF7
:10155000002B04D1FB6AFB6301233B6318E07B682B
:10156000002B03D0BB6B43F08073BB633B68002B45
:1015700003D0BB6B43F08063BB637B6B181DBA6801
:10158000BB6B1343BA6C194603F048F90023FB63A5
:1015900002F0A2FD7862BB6C002B31D07B6A002B7D
:1015A00007D11A4B4FF080521A60BFF34F8FBFF331
:1015B0006F8F04F001F8F863FB6B03F00073002BEE
:1015C0001AD1FEF7AFFE7B6B1B68FB633A68B96804
:1015D000F86B00F077F90346002B09D07B68002BED
:1015E00006D07B6B1A68BB68DB431A407B6B1A60C2
:1015F00001233B63FEF7C6FEFB6B23F07F43FB63D7
:10160000FB6B18464037BD4680BD00BF04ED00E0CF
:1016100080B586B000AF786039607B687B617B689D
:10162000002B0BD14FF0500383F31188BFF36F8F62
:10163000BFF34F8FFB6000BF00BFFDE73B68B3F116
:10164000807F0BD34FF0500383F31188BFF36F8F6C
:10165000BFF34F8FBB6000BF00BFFDE7FEF762FE28
:101660007B691B683B617B691A683B68DB431A40F6
:101670007B691A60FEF786FE3B6918461837BD463F
:1016800080BD80B584B000AF7860396000233A68CF
:101690007968044805F01AFAF860FB6818461037B4
:1016A000BD4680BDAB18000880B489B000AF78603B
:1016B0007B68FB61EFF311824FF0500383F31188D5
:1016C000BFF36F8FBFF34F8FFA60BB60FB68BB61E6
:1016D000FB691B687B61BB693B613B6983F31188D4
:1016E00000BF7B6918462437BD4680BC704780B573
:1016F0008EB000AF7860396000233B637B68BB62CB
:101700000023FB627B68002B0BD14FF0500383F367
:101710001188BFF36F8FBFF34F8F3B6100BF00BFD6
:10172000FDE73B68B3F1807F0BD34FF0500383F3A9
:101730001188BFF36F8FBFF34F8FFB6000BF00BFF7
:10174000FDE7BB6A04337B627B6A08333B6202F0CD
:10175000B5FC7B6ADB687B63BB6A1A683B681A432B
:10176000BB6A1A603CE07B6B5B68FB617B6B1B6850
:10177000BB610023FB62BB6903F07F437B61BB69F4
:1017800023F07F43BB617B6903F08063002B08D1AA
:10179000BB6A1A68BB691340002B0BD00123FB62A4
:1017A00008E0BB6A1A68BB691340BA699A4201D162
:1017B0000123FB62FB6A002B10D07B6903F080736E
:1017C000002B03D03A6BBB6913433B63BB6A1B68B6
:1017D00043F000731946786B03F096F9FB697B635D
:1017E0007A6B3B6A9A42BED1BB6A1A683B6BDB4399
:1017F0001A40BB6A1A6002F06FFCBB6A1B6818468D
:101800003837BD4680BD80B586B000AF78607B6854
:101810007B617B69002B0BD14FF0500383F3118860
:10182000BFF36F8FBFF34F8FFB6000BF00BFFDE7BB
:101830007B6904333B6102F041FC18E03B69DA68E4
:101840003B6908339A420BD14FF0500383F3118860
:10185000BFF36F8FBFF34F8FBB6000BF00BFFDE7CB
:101860003B69DB684FF00071184603F04DF93B69A6
:101870001B68002BE2D102F02FFC7B691B7F002B41
:1018800002D17869FEF7EAFE00BF1837BD4680BD79
:1018900080B582B000AF7860396039687868FFF74A
:1018A00026FF00BF0837BD4680BD80B582B000AFBF
:1018B0007860396039687868FFF7AAFE00BF08379A
:1018C000BD4680BD80B487B000AFF860B9607A6073
:1018D00000237B617B68002B07D1FA68BB6813404B
:1018E000002B0AD001237B6107E0FA68BB68134034
:1018F000BA689A4201D101237B617B6918461C3783
:10190000BD4680BC704780B586B000AFF860B96056
:101910007A607B68BA68F968044805F0D7F878619E
:101920007B6918461837BD4680BD00BF9118000876
:1019300080B485B000AF78607B68BB607B68002BAB
:1019400002D10023FB6002E0BB689B69FB60FB687F
:1019500018461437BD4680BC704780B483B000AFD2
:10196000786039607B683A689A6100BF0C37BD4681
:1019700080BC704780B483B000AF78607B6803F1AF
:1019800008027B685A607B684FF0FF329A607B6880
:1019900003F108027B68DA607B6803F108027B6868
:1019A0001A617B6800221A6000BF0C37BD4680BCFC
:1019B000704780B483B000AF78607B6800221A6102
:1019C00000BF0C37BD4680BC704780B485B000AF07
:1019D000786039607B685B68FB603B68FA685A60D6
:1019E000FB689A683B689A60FB689B683A685A6033
:1019F000FB683A689A603B687A681A617B681B6882
:101A00005A1C7B681A6000BF1437BD4680BC704703
:101A100080B485B000AF786039603B681B68BB60FC
:101A2000BB68B3F1FF3F03D17B681B69FB600CE02F
:101A30007B680833FB6002E0FB685B68FB60FB6867
:101A40005B681B68BA689A42F6D2FB685A683B68C2
:101A50005A603B685B683A689A603B68FA689A60CB
:101A6000FB683A685A603B687A681A617B681B6851
:101A70005A1C7B681A6000BF1437BD4680BC704793
:101A800080B485B000AF78607B681B69FB607B68C1
:101A90005B687A6892689A607B689B687A6852682B
:101AA0005A60FB685B687A689A4203D17B689A68DF
:101AB000FB685A607B6800221A61FB681B685A1E2B
:101AC000FB681A60FB681B6818461437BD4680BC6B
:101AD0007047000080B586B000AF786039600123A0
:101AE0007B617B683B613B69002B0BD14FF050035E
:101AF00083F31188BFF36F8FBFF34F8FFB6000BF7D
:101B000000BFFDE73B69002B5DD03B69DB6B002B21
:101B100059D03B691A6C3B69DB6B0021A3FB0223A4
:101B2000002B00D001210B46002B4CD1FEF7FAFB15
:101B30003B691A683B69DB6B3969096C01FB03F38C
:101B40001A443B699A603B6900229A633B691A68B0
:101B50003B695A603B691A683B69DB6B013B396939
:101B6000096C01FB03F31A443B69DA603B69FF220D
:101B700083F844203B69FF2283F845203B68002B13
:101B800014D13B691B69002B1AD03B6910331846EE
:101B900002F0E2FE0346002B12D0164B4FF08052AB
:101BA0001A60BFF34F8FBFF36F8F09E03B691033AB
:101BB0001846FFF7DFFE3B6924331846FFF7DAFECD
:101BC000FEF7E0FB01E000237B617B69002B0BD17A
:101BD0004FF0500383F31188BFF36F8FBFF34F8F24
:101BE000BB6000BF00BFFDE77B6918461837BD46E4
:101BF00080BD00BF04ED00E080B58CB002AFF8609E
:101C0000B9607A603B6000237B623B68002B0BD19C
:101C10004FF0500383F31188BFF36F8FBFF34F8FE3
:101C20003B6200BF00BFFDE7FB68002B31D03B6883
:101C3000002B2ED07B68002B02D0BB68002B28D055
:101C40007B68002B02D1BB68002B22D150237B6123
:101C50007B69502B0BD04FF0500383F31188BFF3F7
:101C60006F8FBFF34F8FFB6100BF00BFFDE77B6944
:101C70003B687B627B6A012283F8462097F830201C
:101C80007B6A009313467A68B968F86800F068F8D0
:101C90000EE07B6A002B0BD14FF0500383F31188C9
:101CA000BFF36F8FBFF34F8FBB6100BF00BFFDE776
:101CB0007B6A18462837BD4680BD80B58AB002AF22
:101CC000F860B9601346FB710023FB61FB68002BD1
:101CD00032D00021BA68FB68A3FB0223002B00D09E
:101CE00001210B46002B27D1FB68BA6802FB03F3E6
:101CF00013F1510F20D8FB68BA6802FB03F3BB61F4
:101D0000BB6950331846FEF70BFCF861FB69002BEA
:101D100021D0FB697B617B6950337B61FB690022C9
:101D200083F84620FA79FB69009313467A69B9680B
:101D3000F86800F015F80EE0FB69002B0BD14FF0AE
:101D4000500383F31188BFF36F8FBFF34F8F3B6155
:101D500000BF00BFFDE7FB6918462037BD4680BDC8
:101D600080B584B000AFF860B9607A60FB70BB6882
:101D7000002B03D1BB69BA691A6002E0BB697A68BB
:101D80001A60BB69FA68DA63BB69BA681A64012130
:101D9000B869FFF79FFEBB69FA7883F84C2000BF53
:101DA0001037BD4680BD80B582B000AF78607B68DB
:101DB000002B0ED07B6800229A607B6800221A609C
:101DC0007B680022DA60002300220021786800F09E
:101DD00050F900BF0837BD4680BD80B586B000AF62
:101DE0000346FB7101237B6100233B61FB791A46AB
:101DF00039697869FFF761FFF860F868FFF7D3FF8A
:101E0000FB6818461837BD4680BD80B588B002AF64
:101E100003463960FB7101237B6100233B61FB7941
:101E200000933B68002239697869FFF7E5FEF860A6
:101E3000F868FFF7B8FFFB6818461837BD4680BD45
:101E400080B586B000AF78607B683B617B68002B13
:101E50000BD14FF0500383F31188BFF36F8FBFF3A3
:101E60004F8FFB6000BF00BFFDE7FEF75BFA3B69E9
:101E70001B68002B03D13B699B687B6101E0002359
:101E80007B61FEF77FFA7B6918461837BD4680BD37
:101E900080B485B000AF78607B68002B0BD14FF029
:101EA000500383F31188BFF36F8FBFF34F8FBB6075
:101EB00000BF00BFFDE77B681B68002B03D17B6878
:101EC0009B68FB6001E00023FB60FB681846143749
:101ED000BD4680BC704790B587B000AF78607B6826
:101EE0003B613B69002B0BD14FF0500383F311880A
:101EF000BFF36F8FBFF34F8FFB6000BF00BFFDE7E5
:101F00003B699C6803F058F903469C4211D13B6938
:101F1000DB685A1E3B69DA603B69DB68002B05D140
:101F2000002300220021386900F0A3F801237B611F
:101F300001E000237B617B6918461C37BD4690BDDC
:101F400090B587B000AF786039607B683B613B69D2
:101F5000002B0BD14FF0500383F31188BFF36F8F29
:101F6000BFF34F8FFB6000BF00BFFDE73B699C687C
:101F700003F022F903469C4207D13B69DB685A1CF7
:101F80003B69DA6001237B610CE03968386900F055
:101F9000B3FB78617B69002B04D03B69DB685A1C7A
:101FA0003B69DA607B6918461C37BD4690BD80B539
:101FB00088B002AFF860B9607A6000237B61FB688B
:101FC000002B13D0BA68FB689A420FD80223009303
:101FD0007B6800220021F868FFF70EFE78617B69BC
:101FE000002B12D07B69BA689A630EE07B69002BE4
:101FF0000BD14FF0500383F31188BFF36F8FBFF302
:102000004F8F3B6100BF00BFFDE77B691846183763
:10201000BD4680BD80B584B000AF786039600023D4
:10202000FB607B68002B10D03A687B689A420CD822
:10203000022200217868FFF740FEF860FB68002B61
:1020400012D0FB683A689A630EE0FB68002B0BD154
:102050004FF0500383F31188BFF36F8FBFF34F8F9F
:10206000BB6000BF00BFFDE7FB6818461037BD46E8
:1020700080BD80B58EB000AFF860B9607A603B601B
:1020800000237B63FB683B633B6B002B0BD14FF062
:10209000500383F31188BFF36F8FBFF34F8FBB6281
:1020A00000BF00BFFDE7BB68002B03D13B6B1B6C7F
:1020B000002B01D1012300E00023002B0BD14FF0B6
:1020C000500383F31188BFF36F8FBFF34F8F7B6291
:1020D00000BF00BFFDE73B68022B03D13B6BDB6B0E
:1020E000012B01D1012300E00023002B0BD14FF085
:1020F000500383F31188BFF36F8FBFF34F8F3B62A1
:1021000000BF00BFFDE703F065F80346002B02D1D6
:102110007B68002B01D1012300E00023002B0BD1B1
:102120004FF0500383F31188BFF36F8FBFF34F8FCE
:10213000FB6100BF00BFFDE7FEF7F4F83B6B9A6B55
:102140003B6BDB6B9A4202D33B68022B29D13A6886
:10215000B968386B00F07AFEF8623B6B5B6A002B63
:1021600010D03B6B2433184602F0F6FB0346002BDD
:1021700013D0404B4FF080521A60BFF34F8FBFF324
:102180006F8F0AE0FB6A002B07D03A4B4FF080526A
:102190001A60BFF34F8FBFF36F8FFEF7F3F8012381
:1021A00063E07B68002B03D1FEF7ECF800235CE0D2
:1021B0007B6B002B06D107F11403184602F08EFD4D
:1021C00001237B63FEF7DEF801F078FFFEF7AAF843
:1021D0003B6B93F844305BB2B3F1FF3F03D13B6BF1
:1021E000002283F844203B6B93F845305BB2B3F197
:1021F000FF3F03D13B6B002283F84520FEF7C2F876
:102200003A1D07F114031146184602F07DFD0346FE
:10221000002B24D1386B00F035FF0346002B18D07B
:102220003B6B10337A681146184602F0D1FA386BCE
:1022300000F09CFE01F050FF0346002B7FF47CAFC2
:102240000C4B4FF080521A60BFF34F8FBFF36F8F6C
:1022500072E7386B00F08AFE01F03EFF6CE7386BE6
:1022600000F084FE01F038FF002318463837BD46E1
:1022700080BD00BF04ED00E080B592B000AFF86013
:10228000B9607A603B60FB683B643B6C002B0BD110
:102290004FF0500383F31188BFF36F8FBFF34F8F5D
:1022A000FB6200BF00BFFDE7BB68002B03D13B6CA6
:1022B0001B6C002B01D1012300E00023002B0BD16C
:1022C0004FF0500383F31188BFF36F8FBFF34F8F2D
:1022D000BB6200BF00BFFDE73B68022B03D13B6C34
:1022E000DB6B012B01D1012300E00023002B0BD17C
:1022F0004FF0500383F31188BFF36F8FBFF34F8FFD
:102300007B6200BF00BFFDE7FEF7CAF8EFF3118262
:102310004FF0500383F31188BFF36F8FBFF34F8FDC
:102320003A62FB613B6AFB633B6C9A6B3B6CDB6B19
:102330009A4202D33B68022B47D13B6C93F845305D
:1023400087F83B303B6C9B6B7B633A68B968386CB1
:1023500000F07CFD97F93B30B3F1FF3F12D13B6CAD
:102360005B6A002B2ED03B6C2433184602F0F4FA43
:102370000346002B26D07B68002B23D07B680122EC
:102380001A601FE001F0C6FF386397F93B303A6BE3
:102390009A4217D997F93B307F2B0BD14FF050035E
:1023A00083F31188BFF36F8FBFF34F8FBB6100BF03
:1023B00000BFFDE797F83B300133DBB25AB23B6C0C
:1023C00083F8452001237B6401E000237B64FB6BE1
:1023D0007B617B6983F3118800BF7B6C18464837AB
:1023E000BD4680BD80B590B000AF786039607B6835
:1023F000BB63BB6B002B0BD14FF0500383F31188F1
:10240000BFF36F8FBFF34F8F7B6200BF00BFFDE74D
:10241000BB6B1B6C002B0BD04FF0500383F3118868
:10242000BFF36F8FBFF34F8F3B6200BF00BFFDE76D
:10243000BB6B1B68002B03D1BB6B9B68002B01D1CE
:10244000012300E00023002B0BD14FF0500383F356
:102450001188BFF36F8FBFF34F8FFB6100BF00BFC9
:10246000FDE7FEF71DF8EFF311824FF0500383F301
:102470001188BFF36F8FBFF34F8FBA617B61BB6968
:102480007B63BB6B9B6B3B63BB6BDB6B3A6B9A42B7
:1024900043D2BB6B93F8453087F82F303B6B5A1C07
:1024A000BB6B9A6397F92F30B3F1FF3F12D1BB6B2F
:1024B0005B6A002B2ED0BB6B2433184602F04CFA1B
:1024C0000346002B26D03B68002B23D03B6801221B
:1024D0001A601FE001F01EFFB86297F92F30BA6A48
:1024E0009A4217D997F92F307F2B0BD14FF0500319
:1024F00083F31188BFF36F8FBFF34F8F3B6100BF32
:1025000000BFFDE797F82F300133DBB25AB2BB6B47
:1025100083F845200123FB6301E00023FB637B6B11
:10252000FB60FB6883F3118800BFFB6B18464037E4
:10253000BD4680BD80B58CB000AFF860B9607A60F0
:102540000023FB62FB68BB62BB6A002B0BD14FF020
:10255000500383F31188BFF36F8FBFF34F8F3B623C
:1025600000BF00BFFDE7BB68002B03D1BB6A1B6C3B
:10257000002B01D1012300E00023002B0BD14FF0F1
:10258000500383F31188BFF36F8FBFF34F8FFB614D
:1025900000BF00BFFDE702F01DFE0346002B02D185
:1025A0007B68002B01D1012300E00023002B0BD11D
:1025B0004FF0500383F31188BFF36F8FBFF34F8F3A
:1025C000BB6100BF00BFFDE7FDF7ACFEBB6A9B6BC4
:1025D0007B627B6A002B1FD0B968B86A00F0A0FC50
:1025E0007B6A5A1EBB6A9A63BB6A1B69002B0FD0B9
:1025F000BB6A1033184602F0AFF90346002B07D030
:102600003C4B4FF080521A60BFF34F8FBFF36F8F78
:10261000FDF7B8FE012369E07B68002B03D1FDF7CD
:10262000B1FE002362E0FB6A002B06D107F1100324
:10263000184602F053FB0123FB62FDF7A3FE01F0F5
:102640003DFDFDF76FFEBB6A93F844305BB2B3F11A
:10265000FF3F03D1BB6A002283F84420BB6A93F892
:1026600045305BB2B3F1FF3F03D1BB6A002283F870
:102670004520FDF787FE3A1D07F110031146184665
:1026800002F042FB0346002B23D1B86A00F0C0FCE5
:102690000346002B17D0BB6A24337A6811461846CC
:1026A00002F096F8B86A00F061FC01F015FD0346EF
:1026B000002B89D10F4B4FF080521A60BFF34F8F20
:1026C000BFF36F8F80E7B86A00F050FC01F004FDA3
:1026D0007AE7B86A00F04AFC01F0FEFCB86A00F044
:1026E00097FC0346002B3FF46FAF002318463037AA
:1026F000BD4680BD04ED00E080B58CB000AF7860D1
:1027000039600023FB627B687B620023BB627B6ACB
:10271000002B0BD14FF0500383F31188BFF36F8F61
:10272000BFF34F8FBB6100BF00BFFDE77B6A1B6C2F
:10273000002B0BD04FF0500383F31188BFF36F8F42
:10274000BFF34F8F7B6100BF00BFFDE702F042FD8A
:102750000346002B02D13B68002B01D1012300E08E
:102760000023002B0BD14FF0500383F31188BFF3EC
:102770006F8FBFF34F8F3B6100BF00BFFDE7FDF7D9
:10278000D1FD7B6A9B6B3B623B6A002B24D03B6A8A
:102790005A1E7B6A9A637B6A1B68002B04D102F085
:1027A00023FF02467B6A9A607B6A1B69002B0FD06D
:1027B0007B6A1033184602F0CFF80346002B07D08F
:1027C0004C4B4FF080521A60BFF34F8FBFF36F8FA7
:1027D000FDF7D8FD012389E03B68002B03D1FDF70D
:1027E000D1FD002382E0FB6A002B06D107F108032C
:1027F000184602F073FA0123FB62FDF7C3FD01F0F6
:102800005DFCFDF78FFD7B6A93F844305BB2B3F15A
:10281000FF3F03D17B6A002283F844207B6A93F850
:1028200045305BB2B3F1FF3F03D17B6A002283F8EE
:102830004520FDF7A7FD3A4607F108031146184663
:1028400002F062FA0346002B32D1786A00F0E0FB16
:102850000346002B26D07B6A1B68002B09D1FDF7AD
:1028600061FD7B6A9B68184602F0D2FCB862FDF7F6
:1028700089FD7B6A24333A681146184601F0A8FFA7
:10288000786A00F073FB01F027FC0346002B7FF40D
:1028900076AF184B4FF080521A60BFF34F8FBFF3E3
:1028A0006F8F6CE7786A00F061FB01F015FC66E75A
:1028B000786A00F05BFB01F00FFC786A00F0A8FB7F
:1028C0000346002B3FF45BAFBB6A002B0DD0FDF736
:1028D00029FD786A00F0A3FAF8617B6A9B68F969C0
:1028E000184602F0BDFDFDF74DFD002318463037B8
:1028F000BD4680BD04ED00E080B58EB000AFF8604D
:10290000B9607A6000237B63FB683B633B6B002B01
:102910000BD14FF0500383F31188BFF36F8FBFF3D8
:102920004F8F7B6200BF00BFFDE7BB68002B03D168
:102930003B6B1B6C002B01D1012300E00023002B1B
:102940000BD14FF0500383F31188BFF36F8FBFF3A8
:102950004F8F3B6200BF00BFFDE702F03BFC034628
:10296000002B02D17B68002B01D1012300E0002362
:10297000002B0BD14FF0500383F31188BFF36F8FFF
:10298000BFF34F8FFB6100BF00BFFDE7FDF7CAFC3F
:102990003B6B9B6BFB62FB6A002B21D03B6BDB68C4
:1029A000BB62B968386B00F0BBFA3B6BBA6ADA609D
:1029B0003B6B5B6A002B0FD03B6B2433184601F056
:1029C000CBFF0346002B07D03C4B4FF080521A60E0
:1029D000BFF34F8FBFF36F8FFDF7D4FC012369E086
:1029E0007B68002B03D1FDF7CDFC002362E07B6BFD
:1029F000002B06D107F11403184602F06FF90123EA
:102A00007B63FDF7BFFC01F059FBFDF78BFC3B6BD3
:102A100093F844305BB2B3F1FF3F03D13B6B00222C
:102A200083F844203B6B93F845305BB2B3F1FF3F32
:102A300003D13B6B002283F84520FDF7A3FC3A1D30
:102A400007F114031146184602F05EF90346002B05
:102A500023D1386B00F0DCFA0346002B17D03B6B18
:102A600024337A681146184601F0B2FE386B00F044
:102A70007DFA01F031FB0346002B87D10F4B4FF05D
:102A800080521A60BFF34F8FBFF36F8F7EE7386BB2
:102A900000F06CFA01F020FB78E7386B00F066FA82
:102AA00001F01AFB386B00F0B3FA0346002B3FF439
:102AB0006DAF002318463837BD4680BD04ED00E0F9
:102AC00080B590B000AFF860B9607A60FB68BB6316
:102AD000BB6B002B0BD14FF0500383F31188BFF376
:102AE0006F8FBFF34F8F7B6200BF00BFFDE7BB68F6
:102AF000002B03D1BB6B1B6C002B01D1012300E029
:102B00000023002B0BD14FF0500383F31188BFF348
:102B10006F8FBFF34F8F3B6200BF00BFFDE7FDF734
:102B2000BFFCEFF311824FF0500383F31188BFF322
:102B30006F8FBFF34F8FFA61BB61FB697B63BB6B28
:102B40009B6B3B633B6B002B47D0BB6B93F84430D4
:102B500087F82F30B968B86B00F0E2F93B6B5A1E6A
:102B6000BB6B9A6397F92F30B3F1FF3F12D1BB6B68
:102B70001B69002B2ED0BB6B1033184601F0ECFE06
:102B80000346002B26D07B68002B23D07B680122D4
:102B90001A601FE001F0BEFBB86297F92F30BA6AE5
:102BA0009A4217D997F92F307F2B0BD14FF0500352
:102BB00083F31188BFF36F8FBFF34F8F7B6100BF2B
:102BC00000BFFDE797F82F300133DBB25AB2BB6B81
:102BD00083F844200123FB6301E00023FB637B6B4C
:102BE0003B613B6983F3118800BFFB6B184640379C
:102BF000BD4680BD80B58CB000AF786039607B6821
:102C0000BB62BB6A002B0BD14FF0500383F31188DA
:102C1000BFF36F8FBFF34F8FFB6100BF00BFFDE7B6
:102C20003B68002B03D1BB6A1B6C002B01D1012335
:102C300000E00023002B0BD14FF0500383F31188E9
:102C4000BFF36F8FBFF34F8FBB6100BF00BFFDE7C6
:102C5000BB6A1B6C002B0BD14FF0500383F3118820
:102C6000BFF36F8FBFF34F8F7B6100BF00BFFDE7E6
:102C7000FDF716FCEFF311824FF0500383F3118838
:102C8000BFF36F8FBFF34F8F3A61FB603B697B628D
:102C9000BB6A9B6B002B0CD0BB6ADB683B6239685C
:102CA000B86A00F03DF9BB6A3A6ADA600123FB6258
:102CB00001E00023FB627B6ABB60BB6883F3118881
:102CC00000BFFB6A18463037BD4680BD80B584B072
:102CD00000AF78607B68002B0BD14FF0500383F37B
:102CE0001188BFF36F8FBFF34F8FBB6000BF00BF72
:102CF000FDE7FDF717FB7B689B6BFB60FDF742FB75
:102D0000FB6818461037BD4680BD80B586B000AF61
:102D100078607B687B617B69002B0BD14FF050039F
:102D200083F31188BFF36F8FBFF34F8FFB6000BF3A
:102D300000BFFDE7FDF7F6FA7B69DA6B7B699B6BF9
:102D4000D31A3B61FDF71EFB3B6918461837BD4699
:102D500080BD80B487B000AF78607B687B617B69A1
:102D6000002B0BD14FF0500383F31188BFF36F8F0B
:102D7000BFF34F8FFB6000BF00BFFDE77B699B6B1C
:102D80003B613B6918461C37BD4680BC704780B527
:102D900084B000AF78607B68FB60FB68002B0BD1D0
:102DA0004FF0500383F31188BFF36F8FBFF34F8F42
:102DB000BB6000BF00BFFDE7F86800F023FAFB68C6
:102DC00093F84630002B02D1F868FDF747FC00BFAE
:102DD0001037BD4680BD80B483B000AF78607B689B
:102DE0009B6C18460C37BD4680BC704780B483B0DE
:102DF00000AF786039607B683A689A6400BF0C372E
:102E0000BD4680BC704780B483B000AF78607B68FB
:102E100093F84C3018460C37BD4680BC704780B4E0
:102E200085B000AF78607B685B6A002B06D07B685A
:102E30001B6B1B68C3F13803FB6001E00023FB60E0
:102E4000FB6818461437BD4680BC704780B586B015
:102E500000AFF860B9607A6000237B61FB689B6B10
:102E60003B61FB681B6C002B0DD1FB681B68002BC2
:102E70004DD1FB689B68184602F05AFA7861FB68EE
:102E800000229A6043E07B68002B19D1FB685868E8
:102E9000FB681B6C1A46B96806F03AF8FB685A687A
:102EA000FB681B6C1A44FB685A60FB685A68FB6835
:102EB0009B689A422BD3FB681A68FB685A6026E02D
:102EC000FB68D868FB681B6C1A46B96806F020F8E6
:102ED000FB68DA68FB681B6C5B421A44FB68DA60CB
:102EE000FB68DA68FB681B689A4207D2FB689A683D
:102EF000FB681B6C5B421A44FB68DA607B68022B40
:102F000005D13B69002B02D03B69013B3B613B692A
:102F10005A1CFB689A637B6918461837BD4680BD0A
:102F200080B582B000AF786039607B681B6C002B85
:102F300018D07B68DA687B681B6C1A447B68DA609F
:102F40007B68DA687B689B689A4203D37B681A685F
:102F50007B68DA607B68D9687B681B6C1A463868C6
:102F600005F0D6FF00BF0837BD4680BD80B584B0F0
:102F700000AF7860FDF7D6F97B6893F84530FB73B6
:102F800011E07B685B6A002B12D07B682433184603
:102F900001F0E2FC0346002B01D001F01DFFFB7B9A
:102FA000013BDBB2FB7397F90F30002BE9DC00E04B
:102FB00000BF7B68FF2283F84520FDF7E3F9FDF7AA
:102FC000B1F97B6893F84430BB7311E07B681B69EF
:102FD000002B12D07B681033184601F0BDFC03466D
:102FE000002B01D001F0F8FEBB7B013BDBB2BB73D1
:102FF00097F90E30002BE9DC00E000BF7B68FF2270
:1030000083F84420FDF7BEF900BF1037BD4680BDF0
:1030100080B584B000AF7860FDF784F97B689B6B66
:10302000002B02D10123FB6001E00023FB60FDF7D0
:10303000A9F9FB6818461037BD4680BD80B487B03B
:1030400000AF78607B683B613B69002B0BD14FF090
:10305000500383F31188BFF36F8FBFF34F8FFB6073
:1030600000BF00BFFDE73B699B6B002B02D1012332
:103070007B6101E000237B617B6918461C37BD46FC
:1030800080BC704780B584B000AF7860FDF74AF926
:103090007B689A6B7B68DB6B9A4202D10123FB60F1
:1030A00001E00023FB60FDF76DF9FB68184610375F
:1030B000BD4680BD80B487B000AF78607B683B615F
:1030C0003B69002B0BD14FF0500383F31188BFF302
:1030D0006F8FBFF34F8FFB6000BF00BFFDE73B6901
:1030E0009A6B3B69DB6B9A4202D101237B6101E061
:1030F00000237B617B6918461C37BD4680BC704746
:1031000080B487B000AF7860396000233B617B6892
:10311000002B0BD14FF0500383F31188BFF36F8F57
:10312000BFF34F8FFB6000BF00BFFDE73B68002B84
:1031300024D000237B611EE0174A7B69DB00134427
:103140005B687A689A4205D17B69DB00124A1344B6
:103150003B6113E03B69002B0AD10F4A7B6952F8AF
:103160003330002B04D17B69DB000B4A13443B61F5
:103170007B6901337B617B69072BDDD93B69002BC0
:1031800005D03B693A681A603B697A685A6000BFAB
:103190001C37BD4680BC7047C01C002080B487B07F
:1031A00000AF786000233B617B68002B0BD14FF0B0
:1031B000500383F31188BFF36F8FBFF34F8FFB6012
:1031C00000BF00BFFDE700237B6110E00C4A7B6974
:1031D000DB0013445B687A689A4205D1084A7B6930
:1031E00052F833303B6105E07B6901337B617B69D9
:1031F000072BEBD93B6918461C37BD4680BC70478E
:10320000C01C002080B485B000AF78607B68002BC4
:103210000BD14FF0500383F31188BFF36F8FBFF3CF
:103220004F8FBB6000BF00BFFDE70023FB6016E0CF
:103230000F4AFB68DB0013445B687A689A420BD143
:103240000B4AFB68002142F83310094AFB68DB0097
:10325000134400225A6006E0FB680133FB60FB6800
:10326000072BE5D900BF00BF1437BD4680BC7047AF
:10327000C01C002080B586B000AFF860B9607A60ED
:10328000FB687B61FDF74EF87B6993F844305BB2D5
:10329000B3F1FF3F03D17B69002283F844207B69AF
:1032A00093F845305BB2B3F1FF3F03D17B69002255
:1032B00083F84520FDF766F87B699B6B002B06D1F0
:1032C0007B6924337A68B968184601F0FFFA786997
:1032D000FFF74CFE00BF1837BD4680BD80B58EB0ED
:1032E00004AFF860B9607A603B607B6B002B0BD158
:1032F0004FF0500383F31188BFF36F8FBFF34F8FED
:103300003B6200BF00BFFDE7BB6B002B0BD14FF052
:10331000500383F31188BFF36F8FBFF34F8FFB61AF
:1033200000BF00BFFDE75C233B613B695C2B0BD01A
:103330004FF0500383F31188BFF36F8FBFF34F8FAC
:10334000BB6100BF00BFFDE73B69BB6B002B23D017
:103350007B6B002B20D0BB6B7B625C220021786AE8
:1033600005F0A0FC7B6A7A6B1A637B6A022283F801
:103370005920002303937B6A029307F114030193FE
:103380003B6B00933B687A68B968F86800F055F8C1
:10339000786A00F0E2F801E000237B617B6918465F
:1033A0002837BD4680BD80B58CB004AFF860B960E9
:1033B0003B601346FB80FB889B001846FDF7B0F886
:1033C00078617B69002B13D05C20FDF7A9F8F861C8
:1033D000FB69002B08D05C220021F86905F062FC33
:1033E000FB697A691A6305E07869FDF737F901E04E
:1033F0000023FB61FB69002B17D0FB69002283F8D7
:103400005920FA8800230393FB690293FB6A019316
:10341000BB6A00933B68B968F86800F00EF8F86979
:1034200000F09BF80123BB6102E04FF0FF33BB616A
:10343000BB6918462037BD4680BD80B588B000AF57
:10344000F860B9607A603B603B6B186B7B689B00EF
:103450001A46A52105F026FC3B6B1A6B7B6803F12D
:103460008043013B9B001344BB61BB6923F007030E
:10347000BB61BB6903F00703002B0BD04FF0500377
:1034800083F31188BFF36F8FBFF34F8F7B6100BF52
:1034900000BFFDE7BB68002B1ED00023FB6112E0DC
:1034A000BA68FB69134419783A6BFB6913443433E7
:1034B0000A461A70BA68FB6913441B78002B06D0C1
:1034C000FB690133FB61FB690F2BE9D900E000BF09
:1034D0003B6B002283F84320BB6A372B0BD94FF09C
:1034E000500383F31188BFF36F8FBFF34F8F3B619E
:1034F00000BF00BFFDE7BB6A372B01D93723BB6292
:103500003B6BBA6ADA623B6BBA6ADA643B6B0433D0
:103510001846FEF74EFA3B6B18331846FEF749FA89
:103520003B6B3A6B1A61BB6AC3F138023B6B9A6121
:103530003B6B3A6B5A623A68F968B869FCF7E8FD88
:1035400002463B6B1A60FB6A002B02D0FB6A3A6BA7
:103550001A6000BF2037BD4680BD80B584B000AF83
:103560007860FCF7DFFE414B1B6801333F4A136074
:103570003F4B1B68002B09D13D4A7B6813603B4BD6
:103580001B68012B10D101F071FC0DE0394B1B6859
:10359000002B09D1364B1B68DA6A7B68DB6A9A42DA
:1035A00002D8334A7B681360334B1B680133324ABD
:1035B0001360314B1A687B685A647B68DA6A2F4B58
:1035C0001B689A4203D97B68DB6A2C4A13607B68CC
:1035D000DA6A2B4913469B0013449B000B440433C7
:1035E0001B68FB607B68FA689A60FB689A687B6876
:1035F000DA60FB689B687A6804325A607B681A1D3F
:10360000FB689A607B68DA6A13469B0013449B0050
:103610001B4A1A447B685A617B68DA6A1849134668
:103620009B0013449B000B441B68591C1448134611
:103630009B0013449B0003441960FCF7A3FE0D4B51
:103640001B68002B0ED00A4B1B68DA6A7B68DB6AAA
:103650009A4207D20B4B4FF080521A60BFF34F8F44
:10366000BFF36F8F00BF1037BD4680BDD42100204F
:10367000001D0020E0210020F0210020DC2100209E
:10368000041D002004ED00E080B584B000AF786038
:10369000FCF748FE7B68002B02D12F4B1B6800E033
:1036A0007B68FB60FB6804331846FEF7E9F9FB68AA
:1036B0009B6A002B04D0FB6818331846FEF7E0F92C
:1036C000264B1B680133254A1360234B1B68FA689D
:1036D0009A420BD1FB68043319462148FEF775F96D
:1036E000204B1B6801331F4A136006E01E4B1B680A
:1036F000013B1D4A136001F045FDFCF743FE164BEC
:103700001B68FA689A4202D0F86801F00BFD174B6B
:103710001B68002B1CD0104B1B68FA689A4217D10B
:10372000134B1B68002B0BD04FF0500383F3118811
:10373000BFF36F8FBFF34F8FBB6000BF00BFFDE7CC
:103740000C4B4FF080521A60BFF34F8FBFF36F8F57
:1037500000BF1037BD4680BD001D0020F0210020B5
:10376000A8210020BC210020D4210020E02100203D
:10377000FC21002004ED00E080B58AB000AF786045
:10378000396000237B627B68002B0BD14FF0500324
:1037900083F31188BFF36F8FBFF34F8F7B6100BF3F
:1037A00000BFFDE73B68002B0BD14FF0500383F3C4
:1037B0001188BFF36F8FBFF34F8F3B6100BF00BF16
:1037C000FDE72B4B1B68002B0BD04FF0500383F30E
:1037D0001188BFF36F8FBFF34F8FFB6000BF00BF37
:1037E000FDE700F06BFC234B1B683B627B681B68AA
:1037F0003A681344FB617B681B683A6A9A420BD2B1
:103800007B681B68FA699A4211D2FA693B6A9A424C
:103810000DD901237B620AE07B681B68FA699A4232
:1038200003D3FA693B6A9A4201D901237B627B6820
:10383000FA691A607B6A002B06D0FA693B6AD31AD0
:103840000021184602F0E2FB00F046FCB861BB69BB
:10385000002B07D1084B4FF080521A60BFF34F8FF7
:10386000BFF36F8F7B6A18462837BD4680BD00BF07
:10387000FC210020D821002004ED00E080B584B0B8
:1038800000AF78600023FB607B68002B18D0144BDE
:103890001B68002B0BD04FF0500383F31188BFF34C
:1038A0006F8FBFF34F8FBB6000BF00BFFDE700F01D
:1038B00005FC0021786802F0A9FB00F00DFCF8601F
:1038C000FB68002B07D1074B4FF080521A60BFF303
:1038D0004F8FBFF36F8F00BF1037BD4680BD00BF55
:1038E000FC21002004ED00E080B58AB000AF7860D4
:1038F0007B68FB61FB69002B0BD14FF0500383F316
:103900001188BFF36F8FBFF34F8FFB6000BF00BF05
:10391000FDE72D4B1B68FA699A4203D1002387F813
:1039200027304BE0FCF7FEFCFB695B69BB61274B72
:103930001B687B61264B1B683B61FCF723FDBA6962
:103940007B699A4203D0BA693B699A4203D1022348
:1039500087F8273032E0BB691E4A934220D1FB69C9
:103960009B6A002B18D1032387F8273000233B6282
:103970000EE0FA693B6A134458331B78DBB2012B23
:1039800003D1022387F8273018E03B6A01333B62FA
:103990003B6A002BEDDD11E0022387F827300DE0B4
:1039A000BB690D4A934202D0BB69002B03D10423AB
:1039B00087F8273002E0012387F8273097F827306F
:1039C00018462837BD4680BD001D00208C210020F0
:1039D00090210020C0210020A821002080B584B0C3
:1039E00000AF7860FCF79EFC7B68002B02D1074B90
:1039F0001B6800E07B68FB60FB68DB6ABB60FCF770
:103A0000C1FCBB6818461037BD4680BD001D0020B4
:103A100080B588B000AF7860FCF742FDEFF311820B
:103A20004FF0500383F31188BFF36F8FBFF34F8FB5
:103A30003A61FB603B69FB617B68002B02D1094B5B
:103A40001B6800E07B68BB61BB69DB6A7B61FB696B
:103A5000BB60BB6883F3118800BF7B6918462037C1
:103A6000BD4680BD001D002080B588B000AF7860E5
:103A700039600023FB613B68372B0BD94FF05003B3
:103A800083F31188BFF36F8FBFF34F8FBB6000BF0D
:103A900000BFFDE73B68372B01D937233B60FCF7BC
:103AA00041FC7B68002B02D14F4B1B6800E07B6818
:103AB000BB61BB69DB6C7B617A693B689A4200F051
:103AC0008C803A687B699A420DD9474B1B68BA696A
:103AD0009A420FD0444B1B68DB6A3A689A4209D37A
:103AE0000123FB6106E0404B1B68BA699A4201D191
:103AF0000123FB61BB69DB6A3B61BB69DA6CBB69B3
:103B0000DB6A9A4202D1BB693A68DA62BB693A68F9
:103B1000DA64BB699B69002B04DB3B68C3F13802A4
:103B2000BB699A61BB6959693A6913469B001344A2
:103B30009B002E4A1344994244D1BB690433184672
:103B4000FDF79EFFBB69DA6A294B1B689A4203D9CD
:103B5000BB69DB6A264A1360BB69DA6A23491346EC
:103B60009B0013449B000B4404331B68FB60BB6940
:103B7000FA689A60FB689A68BB69DA60FB689B68C0
:103B8000BA6904325A60BB691A1DFB689A60BB6946
:103B9000DA6A13469B0013449B00144A1A44BB691B
:103BA0005A61BB69DA6A114913469B0013449B00B2
:103BB0000B441B68591C0D4813469B0013449B0083
:103BC00003441960FB69002B07D00A4B4FF0805269
:103BD0001A60BFF34F8FBFF36F8FFCF7D3FB00BFAB
:103BE0002037BD4680BD00BF001D0020041D002001
:103BF000DC21002004ED00E080B586B000AF7860E5
:103C0000FCF790FB7B68002B02D1374B1B6800E070
:103C10007B683B613B6904331846FDF731FF3B6924
:103C20009B6A002B04D03B6918331846FDF728FF28
:103C30003B69043319462D48FDF7C7FE00237B611D
:103C400010E03A697B69134458331B78DBB2012BCF
:103C500005D13A697B691344583300221A707B6995
:103C600001337B617B69002BEBDDFCF78BFB204B89
:103C70001B68002B05D0FCF755FB01F083FAFCF71D
:103C800081FB194B1B683A699A4228D1184B1B6873
:103C9000002B18D0174B1B68002B0BD04FF0500394
:103CA00083F31188BFF36F8FBFF34F8FFB6000BFAB
:103CB00000BFFDE7104B4FF080521A60BFF34F8FEB
:103CC000BFF36F8F0BE0094B1A680C4B1B689A42CD
:103CD00003D1054B00221A6001E000F01BFD00BF7C
:103CE0001837BD4680BD00BF001D0020C021002048
:103CF000E0210020FC21002004ED00E0D421002080
:103D000080B487B000AF786000237B617B683B6143
:103D10007B68002B0BD14FF0500383F31188BFF366
:103D20006F8FBFF34F8FFB6000BF00BFFDE73B69A4
:103D30005B690A4A93420AD13B699B6A084A9342EB
:103D400005D03B699B6A002B01D101237B617B6914
:103D500018461C37BD4680BC704700BFC0210020FC
:103D60009421002080B586B000AF78607B687B61CD
:103D70007B68002B0BD14FF0500383F31188BFF306
:103D80006F8FBFF34F8FFB6000BF00BFFDE7354B68
:103D90001B687A699A4260D07B69002B5DD0FCF782
:103DA000C1FA7869FFF7ACFF0346002B53D07B695B
:103DB00004331846FDF764FE7B69DA6A2A4B1B68F8
:103DC0009A4203D97B69DB6A274A13607B69DA6A06
:103DD000264913469B0013449B000B4404331B6885
:103DE0003B617B693A699A603B699A687B69DA60F2
:103DF0003B699B687A6904325A607B691A1D3B698A
:103E00009A607B69DA6A13469B0013449B00174A49
:103E10001A447B695A617B69DA6A144913469B002C
:103E200013449B000B441B68591C104813469B000D
:103E300013449B00034419607B69DA6A094B1B68D1
:103E4000DB6A9A4207D30A4B4FF080521A60BFF3E5
:103E50004F8FBFF36F8FFCF795FA00BF1837BD4641
:103E600080BD00BF001D0020DC210020041D0020BB
:103E700004ED00E080B58AB000AF786000237B627B
:103E80007B683B627B68002B0BD14FF0500383F3C0
:103E90001188BFF36F8FBFF34F8F7B6100BF00BFEF
:103EA000FDE7FCF7FDFAEFF311824FF0500383F3C7
:103EB0001188BFF36F8FBFF34F8F3A61FB603B698F
:103EC000FB61386AFFF71CFF0346002B5BD0334BC6
:103ED0001B68002B51D13B6ADA6A314B1B68DB6AE5
:103EE0009A4204D301237B622E4B01221A603B6A63
:103EF00004331846FDF7C4FD3B6ADA6A2A4B1B6897
:103F00009A4203D93B6ADB6A274A13603B6ADA6A42
:103F1000264913469B0013449B000B4404331B6843
:103F2000BB613B6ABA699A60BB699A683B6ADA60AE
:103F3000BB699B683A6A04325A603B6A1A1DBB69C6
:103F40009A603B6ADA6A13469B0013449B00174A47
:103F50001A443B6A5A613B6ADA6A144913469B0069
:103F600013449B000B441B68591C104813469B00CC
:103F700013449B000344196005E03B6A183319465B
:103F80000B48FDF722FDFB69BB60BB6883F311881A
:103F900000BF7B6A18462837BD4680BDFC21002043
:103FA000001D0020E8210020DC210020041D00204D
:103FB0009421002080B58AB004AF0023BB600023A9
:103FC0007B603A46391D07F108031846FCF71AFCD6
:103FD00039687B68BA68029201930023009300233A
:103FE0000A4623492348FFF779F90346224A13601A
:103FF000214B1B68002B02D001237B6101E00023D1
:104000007B617B69012B02D102F06EF878617B69DC
:10401000012B16D14FF0500383F31188BFF36F8F3C
:10402000BFF34F8F3B6100BF144B4FF0FF321A605C
:10403000134B01221A60134B00221A60FCF7E3F8BD
:104040000FE07B69B3F1FF3F0BD14FF0500383F3D7
:104050001188BFF36F8FBFF34F8FFB6000BF00BFAE
:10406000FDE7094B1B6800BF1837BD4680BD00BF88
:10407000A8E100083F4E0008F8210020F4210020AC
:10408000E0210020D82100200800002080B582B067
:1040900000AF4FF0500383F31188BFF36F8FBFF36E
:1040A0004F8F7B6000BF044B00221A60FCF71EF9A3
:1040B00000BF0837BD4680BDE021002080B400AFBE
:1040C000044B1B680133034A136000BFBD4680BC2C
:1040D000704700BFFC21002080B588B000AF0023EE
:1040E000FB610023BB61724B1B68002B0BD14FF0AF
:1040F000500383F31188BFF36F8FBFF34F8F7B6043
:1041000000BF00BFFDE7FCF70DF9694B1B68013BE1
:10411000674A1360664B1B68002B40F0C180654BFB
:104120001B68002B00F0BC808BE0634BDB68DB6816
:10413000FB61FB699B6A3B61FB69DB69FA69126A97
:104140009A60FB691B6AFA69D2695A603B695A68CE
:10415000FB6918339A4203D1FB691A6A3B695A60BA
:10416000FB6900229A623B691B685A1E3B691A6010
:10417000FB695B69FB60FB699B68FA69D2689A60BE
:10418000FB69DB68FA6992685A60FB685A68FB69E8
:1041900004339A4203D1FB69DA68FB685A60FB6911
:1041A00000225A61FB681B685A1EFB681A60FB6993
:1041B000DA6A424B1B689A4203D9FB69DB6A3F4AC1
:1041C0001360FB69DA6A3E4913469B0013449B0067
:1041D0000B4404331B68BB60FB69BA689A60BB6818
:1041E0009A68FB69DA60BB689B68FA6904325A60B6
:1041F000FB691A1DBB689A60FB69DA6A13469B006B
:1042000013449B002E4A1A44FB695A61FB69DA6A1F
:104210002B4913469B0013449B000B441B68591CFD
:10422000274813469B0013449B0003441960FB6915
:10423000DA6A244B1B68DB6A9A4202D3224B0122C2
:104240001A601D4B1B68002B7FF46FAFFB69002BBE
:1042500001D000F097FF1D4B1B687B617B69002B31
:1042600010D000F03FF90346002B02D0164B01227C
:104270001A607B69013B7B617B69002BF1D1134B99
:1042800000221A60104B1B68002B09D00123BB6170
:104290000F4B4FF080521A60BFF34F8FBFF36F8FF9
:1042A000FCF770F8BB6918462037BD4680BD00BFDB
:1042B000FC210020D421002094210020DC210020BA
:1042C000041D0020001D0020E8210020E421002022
:1042D00004ED00E080B483B000AF044B1B687B604A
:1042E0007B6818460C37BD4680BC7047D82100203B
:1042F00080B582B000AFFCF7D3F800237B60044B9D
:104300001B683B603B6818460837BD4680BD00BF50
:10431000D821002080B400AF024B1B681846BD4670
:1043200080BC7047D421002080B485B000AF786095
:104330007B68002B02D10D4B1B6800E07B68FB60A3
:10434000FB68002B0BD14FF0500383F31188BFF3B0
:104350006F8FBFF34F8FBB6000BF00BFFDE7FB68EF
:10436000343318461437BD4680BC7047001D00200A
:1043700080B586B000AFF860B9607A6000237B61D9
:1043800038233B61FFF79AFE3A4B1B68BA689A42A2
:1043900068D33B69013B3B617A691346DB001344F8
:1043A0009B001A46FB6898183A6913469B00134411
:1043B0009B00314A13440122194600F02BFE0246AD
:1043C0007B6913447B613B69002BE2D17A69134618
:1043D000DB0013449B001A46FB681344274A11680C
:1043E0000222184600F016FE02467B6913447B61E8
:1043F0007A691346DB0013449B001A46FB6813449A
:104400001F4A11680222184600F004FE02467B692A
:1044100013447B617A691346DB0013449B001A4600
:10442000FB68134404221749184600F0F3FD0246C6
:104430007B6913447B617A691346DB0013449B005C
:104440001A46FB68134403220F49184600F0E2FDA8
:1044500002467B6913447B617B68002B02D07B683A
:1044600000221A60FFF738FE7B6918461837BD46F0
:1044700080BD00BFD4210020041D00208C2100201D
:1044800090210020A8210020C021002080B584B008
:1044900000AF7860114B1B68002B0BD04FF050031E
:1044A00083F31188BFF36F8FBFF34F8FBB6000BFE3
:1044B00000BFFDE7FFF702FEFBF734FF084B1A6869
:1044C0007B681344064A1360FBF75CFFFFF704FEAA
:1044D000F860FB6818461037BD4680BDFC210020FF
:1044E000E421002080B58AB000AF00237B627E4BC0
:1044F0001B68002B40F0EE807C4B1B6801333B6255
:104500007A4A3B6A13603B6A002B21D1784B1B68C7
:104510001B68002B0BD04FF0500383F31188BFF3BF
:104520006F8FBFF34F8F7B6000BF00BFFDE7704B05
:104530001B68FB616F4B1B686D4A13606D4AFB691A
:1045400013606D4B1B6801336B4A136000F01AFE59
:104550006A4B1B683A6A9A42C0F0A780644B1B689A
:104560001B68002B04D1654B4FF0FF321A609CE0B2
:104570005F4B1B68DB68DB68BB61BB695B687B61A9
:104580003A6A7B699A4203D25C4A7B6913608CE089
:10459000BB695B693B61BB699B68BA69D2689A6019
:1045A000BB69DB68BA6992685A603B695A68BB6943
:1045B00004339A4203D1BB69DA683B695A60BB692C
:1045C00000225A613B691B685A1E3B691A60BB692D
:1045D0009B6A002B1ED0BB699B6AFB60BB69DB69D1
:1045E000BA69126A9A60BB691B6ABA69D2695A6071
:1045F000FB685A68BB6918339A4203D1BB691A6ACF
:10460000FB685A60BB6900229A62FB681B685A1EED
:10461000FB681A60BB69DA6A394B1B689A4203D996
:10462000BB69DB6A364A1360BB69DA6A35491346EF
:104630009B0013449B000B4404331B68BB60BB69A5
:10464000BA689A60BB689A68BB69DA60BB689B68A5
:10465000BA6904325A60BB691A1DBB689A60BB69AB
:10466000DA6A13469B0013449B00264A1A44BB692E
:104670005A61BB69DA6A234913469B0013449B00C5
:104680000B441B68591C1F4813469B0013449B0096
:1046900003441960BB69DA6A1B4B1B68DB6A9A42E8
:1046A0007FF65CAF01237B6258E7174B1B68DA6A21
:1046B000144913469B0013449B000B441B68012BB9
:1046C00001D901237B62114B1B68002B07D001230A
:1046D0007B6204E00E4B1B6801330D4A13607B6A5A
:1046E00018462837BD4680BDFC210020D821002077
:1046F0008C21002090210020EC210020F4210020BA
:10470000DC210020041D0020001D0020E8210020E5
:10471000E421002080B485B000AF284B1B68002B3B
:1047200003D0274B01221A6042E0254B00221A6079
:10473000244B1B68FB6011E0FB68002B0BD14FF092
:10474000500383F31188BFF36F8FBFF34F8F7B60EC
:1047500000BF00BFFDE7FB68013BFB601A49FA6838
:1047600013469B0013449B000B441B68002BE3D0B3
:10477000FA6813469B0013449B00134A1344BB6022
:10478000BB685B685A68BB685A60BB685A68BB689C
:1047900008339A4204D1BB685B685A68BB685A60A8
:1047A000BB685B68DB68094A1360064AFB681360F4
:1047B00000BF1437BD4680BC704700BFFC210020FD
:1047C000E8210020DC210020041D0020001D002025
:1047D00080B584B000AF786039607B68002B0BD166
:1047E0004FF0500383F31188BFF36F8FBFF34F8FE8
:1047F000FB6000BF00BFFDE7074B1B68183319467D
:104800007868FDF705F90121386801F0FFFB00BF6A
:104810001037BD4680BD00BF001D002080B588B0A8
:1048200000AFF860B9607A60FB68002B0BD14FF0E5
:10483000500383F31188BFF36F8FBFF34F8FBB61BA
:1048400000BF00BFFDE71F4B1B68002B0BD14FF0D3
:10485000500383F31188BFF36F8FBFF34F8F7B61DA
:1048600000BF00BFFDE7184B1B68BA6842F000426A
:104870009A61FB685B68FB61134B1B68FA69DA613C
:10488000114B1B68FA6992681A620F4B1A68FB6930
:104890009B6818325A600C4B1B6803F11802FB69C5
:1048A0009A60094B1B68FA689A62FB681B685A1C7D
:1048B000FB681A600121786801F0A8FB00BF20376F
:1048C000BD4680BDFC210020001D002080B586B0C3
:1048D00000AFF860B9607A60FB68002B0BD14FF035
:1048E000500383F31188BFF36F8FBFF34F8F3B618A
:1048F00000BF00BFFDE7FB685B687B61154B1B6871
:104900007A69DA61134B1B687A6992681A62114BF3
:104910001A687B699B6818325A600E4B1B6803F15A
:1049200018027B699A600B4B1B68FA689A62FB68F5
:104930001B685A1CFB681A607B68002B02D04FF082
:10494000FF33BB607968B86801F060FB00BF1837BF
:10495000BD4680BD001D002080B48BB000AF7860E4
:104960007B68DB68DB683B623B6A002B0BD14FF056
:10497000500383F31188BFF36F8FBFF34F8FFB603A
:1049800000BF00BFFDE73B6A9B6AFB613B6ADB69D6
:104990003A6A126A9A603B6A1B6A3A6AD2695A603A
:1049A000FB695A683B6A18339A4203D13B6A1A6A18
:1049B000FB695A603B6A00229A62FB691B685A1EB7
:1049C000FB691A604A4B1B68002B5FD13B6A5B692D
:1049D0007B613B6A9B683A6AD2689A603B6ADB6893
:1049E0003A6A92685A607B695A683B6A04339A4211
:1049F00003D13B6ADA687B695A603B6A00225A61DC
:104A00007B691B685A1E7B691A603B6ADA6A394BFC
:104A10001B689A4203D93B6ADB6A364A13603B6AD9
:104A2000DA6A354913469B0013449B000B44043358
:104A30001B683B613B6A3A699A603B699A683B6ACA
:104A4000DA603B699B683A6A04325A603B6A1A1D15
:104A50003B699A603B6ADA6A13469B0013449B00E9
:104A6000254A1A443B6A5A613B6ADA6A224913466C
:104A70009B0013449B000B441B68591C1E481346A3
:104A80009B0013449B00034419601BE01B4B5B68B5
:104A9000BB613B6ABA69DA61BB699A683B6A1A62B0
:104AA000BB699B683A6A18325A603B6A03F1180284
:104AB000BB699A603B6A114A9A62104B1B680133CA
:104AC0000E4A13603B6ADA6A0D4B1B68DB6A9A4236
:104AD00005D901237B620B4B01221A6001E0002300
:104AE0007B627B6A18462C37BD4680BC704700BF8E
:104AF000FC210020DC210020041D00209421002046
:104B0000001D0020E821002080B489B000AF78604B
:104B10003960594B1B68002B0BD14FF0500383F3C6
:104B20001188BFF36F8FBFF34F8FFB6000BF00BFD3
:104B3000FDE73B6843F000427B681A607B68DB68F6
:104B4000FB61FB69002B0BD14FF0500383F31188FD
:104B5000BFF36F8FBFF34F8FBB6000BF00BFFDE798
:104B60007B681B69BB617B685B687A6892689A6046
:104B70007B689B687A6852685A60BB695B687A6830
:104B80009A4203D17B689A68BB695A607B680022AD
:104B90001A61BB691B685A1EBB691A60FB695B69B5
:104BA0007B61FB699B68FA69D2689A60FB69DB6884
:104BB000FA6992685A607B695A68FB6904339A42C1
:104BC00003D1FB69DA687B695A60FB6900225A618C
:104BD0007B691B685A1E7B691A60FB69DA6A274B7E
:104BE0001B689A4203D9FB69DB6A244A1360FB699C
:104BF000DA6A234913469B0013449B000B44043399
:104C00001B683B61FB693A699A603B699A68FB697A
:104C1000DA603B699B68FA6904325A60FB691A1DC5
:104C20003B699A60FB69DA6A13469B0013449B0058
:104C3000134A1A44FB695A61FB69DA6A1049134640
:104C40009B0013449B000B441B68591C0C481346E3
:104C50009B0013449B0003441960FB69DA6A094B0B
:104C60001B68DB6A9A4202D9074B01221A6000BF17
:104C70002437BD4680BC7047FC210020DC21002089
:104C8000041D0020001D0020E821002080B584B014
:104C900000AF78607B68002B0BD14FF0500383F39B
:104CA0001188BFF36F8FBFF34F8FFB6000BF00BF52
:104CB000FDE7FBF737FB074B1A687B681A60064B6A
:104CC0001A687B685A60FBF75DFB00BF1037BD4672
:104CD00080BD00BFEC210020D821002080B483B02B
:104CE00000AF7860064B1A687B681A60054B1A683B
:104CF0007B685A6000BF0C37BD4680BC704700BF60
:104D0000EC210020D821002080B588B000AF786069
:104D100039607B68002B0BD14FF0500383F311886F
:104D2000BFF36F8FBFF34F8F3B6100BF00BFFDE745
:104D30003B68002B0BD14FF0500383F31188BFF376
:104D40006F8FBFF34F8FFB6000BF00BFFDE7FBF726
:104D5000E9FA1F4B1B68BB617B685B68BA69D31AB1
:104D60007B613B681B68B3F1FF3F02D10023FB610D
:104D700026E07B681A68174B1B689A420AD07B684A
:104D80005B68BA699A4205D30123FB613B68002244
:104D90001A6015E03B681B687A699A420BD23B683F
:104DA0001A687B69D21A3B681A607868FFF796FF29
:104DB0000023FB6104E03B6800221A600123FB61D1
:104DC000FBF7E0FAFB6918462037BD4680BD00BFFF
:104DD000D8210020EC21002080B400AF034B012239
:104DE0001A6000BFBD4680BC704700BFE8210020AC
:104DF00080B485B000AF78607B68002B05D07B68FD
:104E0000BB60BB689B6CFB6001E00023FB60FB6840
:104E100018461437BD4680BC704780B485B000AFDB
:104E2000786039607B68002B04D07B68FB60FB688E
:104E30003A689A6400BF1437BD4680BC704780B59D
:104E400082B000AF786000F051F8064B1B68012B70
:104E5000F9D9054B4FF080521A60BFF34F8FBFF363
:104E60006F8FF0E7041D002004ED00E080B582B0F4
:104E700000AF00237B600CE07A6813469B0013446C
:104E80009B00124A13441846FCF774FD7B680133FB
:104E90007B607B68372BEFD90D48FCF76BFD0D4825
:104EA000FCF768FD0C48FCF765FD0C48FCF762FD5B
:104EB0000B48FCF75FFD0B4B054A1A600A4B054A8D
:104EC0001A6000BF0837BD4680BD00BF041D00202A
:104ED000642100207821002094210020A8210020B6
:104EE000C02100208C2100209021002080B582B0BC
:104EF00000AF19E0FBF716FA104BDB68DB687B604C
:104F00007B6804331846FCF7BBFD0D4B1B68013B67
:104F10000B4A13600B4B1B68013B0A4A1360FBF7FB
:104F200031FA786800F0FEF8064B1B68002BE1D1DF
:104F300000BF00BF0837BD4680BD00BFA8210020CC
:104F4000D4210020BC21002080B586B000AFF860DD
:104F5000B9607A60FB70FB68002B02D12C4B1B6898
:104F600000E0FB687B61BB687A691A607B6903F1CA
:104F70003402BB685A607B69DA6ABB681A617B6974
:104F80001A6BBB68DA617B695A6CBB689A607B6993
:104F9000DA6CBB685A61BB6800229A61FB78052B0A
:104FA0001AD01B4B1B687A699A4203D1BB68002256
:104FB0001A7318E0BB68FA781A73FB78032B12D1C6
:104FC000FFF77CF87B699B6A002B02D0BB6802224A
:104FD0001A73FFF781F806E07869FEF785FC03464F
:104FE0001A46BB681A737B68002B09D07B691B6B60
:104FF000184600F061F803461A46BB681A8402E0BE
:10500000BB6800221A8400BF1837BD4680BD00BFB0
:10501000001D002080B58AB000AFF860B96013466B
:10502000FB7100237B62BB681B68002B3FD0BB6811
:105030003B623B6A5B685A683B6A5A603B6A5A68E3
:105040003B6A08339A4204D13B6A5B685A683B6A00
:105050005A603B6A5B68DB68FB61BB68BB61BB692C
:105060005B685A68BB695A60BB695A68BB69083398
:105070009A4204D1BB695B685A68BB695A60BB69D4
:105080005B68DB687B617A6A1346DB0013449B0034
:105090001A46FB689918FB7901227869FFF754FFDB
:1050A0007B6A01337B627A69FB699A42D5D17B6A5C
:1050B00018462837BD4680BD80B485B000AF786003
:1050C0000023FB6005E07B6801337B60FB680133F4
:1050D000FB607B681B78A52BF5D0FB689B08FB6009
:1050E000FB689BB218461437BD4680BC704780B53C
:1050F00086B000AF78607B68002B02D1084B1B683C
:1051000000E07B687B617B691B6B3B613869FFF763
:10511000D3FF0346FB60FB6818461837BD4680BDC9
:10512000001D002080B584B000AF78607B6893F8E4
:105130005930002B08D17B681B6B1846FBF78EFAA1
:105140007868FBF78BFA19E07B6893F85930012BEC
:1051500003D17868FBF782FA10E07B6893F8593046
:10516000022B0BD04FF0500383F31188BFF36F8FE6
:10517000BFF34F8FFB6000BF00BFFDE700BF1037DC
:10518000BD4680BD80B400AF094B1B681B68002B77
:1051900004D1084B4FF0FF321A6005E0044B1B6846
:1051A000DB681B68034A136000BFBD4680BC7047C4
:1051B0008C210020F421002080B483B000AF044B88
:1051C0001B687B607B6818460C37BD4680BC704707
:1051D000001D002080B483B000AF0B4B1B68002B78
:1051E00002D101237B6008E0084B1B68002B02D131
:1051F00002237B6001E000237B607B6818460C374C
:10520000BD4680BC704700BFE0210020FC2100208B
:1052100080B586B000AF78607B683B6100237B611E
:105220007B68002B79D03B69DA6A3E4B1B68DB6AEE
:105230009A4269D23B699B69002B06DB394B1B689C
:10524000DB6AC3F138023B699A613B6959693B6982
:10525000DA6A13469B0013449B00334A1344994275
:105260004AD13B6904331846FCF70AFC2D4B1B68F6
:10527000DA6A3B69DA623B69DA6A2C4B1B689A424C
:1052800003D93B69DB6A294A13603B69DA6A26491C
:1052900013469B0013449B000B4404331B68FB60C4
:1052A0003B69FA689A60FB689A683B69DA60FB6858
:1052B0009B683A6904325A603B691A1DFB689A6020
:1052C0003B69DA6A13469B0013449B00164A1A4452
:1052D0003B695A613B69DA6A134913469B001344E0
:1052E0009B000B441B68591C0F4813469B0013443A
:1052F0009B000344196004E00A4B1B68DA6A3B69AF
:10530000DA6201237B6108E03B69DA6C054B1B68BC
:10531000DB6A9A4201D201237B617B691846183708
:10532000BD4680BD001D0020041D0020DC210020A2
:1053300080B588B000AF78607B68BB610023FB61FB
:105340007B68002B00F08180424B1B68BA699A424F
:105350000BD04FF0500383F31188BFF36F8FBFF36F
:105360004F8F3B6100BF00BFFDE7BB691B6D002B8A
:105370000BD14FF0500383F31188BFF36F8FBFF34E
:105380004F8FFB6000BF00BFFDE7BB691B6D5A1E5E
:10539000BB691A65BB69DA6ABB69DB6C9A4254D097
:1053A000BB691B6D002B50D1BB6904331846FCF759
:1053B00067FBBB69DA6CBB69DA62BB69DB6AC3F1A4
:1053C0003802BB699A61BB69DA6A234B1B689A424F
:1053D00003D9BB69DB6A204A1360BB69DA6A1F49DB
:1053E00013469B0013449B000B4404331B687B61F2
:1053F000BB697A699A607B699A68BB69DA607B6984
:105400009B68BA6904325A60BB691A1D7B699A604D
:10541000BB69DA6A13469B0013449B000F4A1A4487
:10542000BB695A61BB69DA6A0C4913469B00134495
:105430009B000B441B68591C084813469B001344EF
:105440009B00034419600123FB61FB691846203768
:10545000BD4680BD001D0020DC210020041D002071
:1054600080B58AB000AF786039607B683B62012309
:10547000FB617B68002B00F095803B6A1B6D002B65
:105480000BD14FF0500383F31188BFF36F8FBFF33D
:105490004F8F3B6100BF00BFFDE73B6ADB6C3A68A2
:1054A0009A4202D93B687B6202E03B6ADB6C7B621A
:1054B0003B6ADB6A7A6A9A4274D03B6A1B6DFA696E
:1054C0009A426FD1394B1B683A6A9A420BD14FF01E
:1054D000500383F31188BFF36F8FBFF34F8FFB60CF
:1054E00000BF00BFFDE73B6ADB6ABB613B6A7A6ACB
:1054F000DA623B6A9B69002B04DB7B6AC3F13802EA
:105500003B6A9A613B6A5969BA6913469B00134426
:105510009B00274A1344994244D13B6A04331846FE
:10552000FCF7AEFA3B6ADA6A224B1B689A4203D94F
:105530003B6ADB6A1F4A13603B6ADA6A1C491346FE
:105540009B0013449B000B4404331B687B613B6A44
:105550007A699A607B699A683B6ADA607B699B68C2
:105560003A6A04325A603B6A1A1D7B699A603B6A48
:10557000DA6A13469B0013449B000D4A1A443B6AA7
:105580005A613B6ADA6A0A4913469B0013449B003E
:105590000B441B68591C064813469B0013449B0090
:1055A0000344196000BF2837BD4680BD001D0020A0
:1055B000041D0020DC21002080B483B000AF094B23
:1055C0001B689B697B60074B1B68DA6A054B1B688D
:1055D000C2F138029A617B6818460C37BD4680BC20
:1055E000704700BF001D002080B400AF074B1B6850
:1055F000002B04D0054B1B681A6D01321A65034B52
:105600001B681846BD4680BC704700BF001D0020C7
:1056100080B586B000AFF860B9607A60FB68002B97
:105620000BD04FF0500383F31188BFF36F8FBFF39C
:105630004F8F3B6100BF00BFFDE7FAF773FE284BB9
:105640001A68FB6814339B0013445B68002B15D168
:10565000234B1A68FB681344583301221A707B6885
:10566000002B0BD00121786800F0D0FC1D4B4FF0CF
:1056700080521A60BFF34F8FBFF36F8FFAF782FE2D
:10568000FAF750FE164B1A68FB6814339B0013445C
:105690005B687B617B69002B14D0BB68002B08D052
:1056A0000F4B1A68FB6814339B00134400225A60A6
:1056B00008E00B4B19687B695A1EFB6814339B008A
:1056C0000B445A60064B1A68FB6813445833002297
:1056D0001A70FAF757FE7B6918461837BD4680BD29
:1056E000001D002004ED00E080B586B000AFF8603A
:1056F000B9607A603B60FB68002B0BD04FF0500321
:1057000083F31188BFF36F8FBFF34F8F3B6100BFEF
:1057100000BFFDE7FAF706FE344B1A68FB68134436
:1057200058331B78DBB2022B24D0304B1A68FB684D
:1057300014339B0013445968BB68DB431940FB6872
:1057400014339B0013445960284B1A68FB681344B8
:10575000583301221A703B6A002B0BD00121386AA2
:1057600000F054FC224B4FF080521A60BFF34F8F71
:10577000BFF36F8FFAF706FEFAF7D4FD3B68002BF4
:1057800008D01A4B1A68FB6814339B0013445A68FC
:105790003B681A60154B1A68FB68134458331B7832
:1057A000DBB2022B02D000237B6110E00F4B1A68A2
:1057B000FB6814339B00134459687B68DB43194032
:1057C000FB6814339B001344596001237B61074B32
:1057D0001A68FB681344583300221A70FAF7D2FD96
:1057E0007B6918461837BD4680BD00BF001D0020EC
:1057F00004ED00E080B58EB000AFF860B9607A606B
:10580000FB7001237B63BB68002B0BD04FF0500370
:1058100083F31188BFF36F8FBFF34F8F3B6200BFDD
:1058200000BFFDE7FB68002B0BD14FF0500383F363
:105830001188BFF36F8FBFF34F8FFB6100BF00BFB5
:10584000FDE7FB683B63FAF76DFD3B6C002B07D06F
:105850003A6BBB6814339B0013445A683B6C1A6064
:105860003A6BBB68134458331B7887F82F303A6B78
:10587000BB681344583302221A70FB78042B41D8BA
:1058800001A252F823F000BF255900089D580008D6
:10589000BB580008D7580008E75800083A6BBB68A7
:1058A00014339B0013445A687B681A43396BBB68F6
:1058B00014339B000B445A6037E03A6BBB681433D7
:1058C0009B0013445B685A1C396BBB6814339B0004
:1058D0000B445A6029E03A6BBB6814339B001344B5
:1058E0007A685A6021E097F82F30022B07D03A6B84
:1058F000BB6814339B0013447A685A6015E0002398
:105900007B6312E04D4B1B68002B0DD04FF0500312
:1059100083F31188BFF36F8FBFF34F8FBB6100BF5D
:1059200000BFFDE700BF00E000BF97F82F30012B5C
:105930007DD13B6B5B69BB623B6B9B683A6BD2680A
:105940009A603B6BDB683A6B92685A60BB6A5A6834
:105950003B6B04339A4203D13B6BDA68BB6A5A60F3
:105960003B6B00225A61BB6A1B685A1EBB6A1A60F5
:105970003B6BDA6A324B1B689A4203D93B6BDB6A9A
:105980002F4A13603B6BDA6A2E4913469B0013447F
:105990009B000B4404331B687B623B6B7A6A9A6002
:1059A0007B6A9A683B6BDA607B6A9B683A6B04326D
:1059B0005A603B6B1A1D7B6A9A603B6BDA6A13462E
:1059C0009B0013449B001F4A1A443B6B5A613B6B7C
:1059D000DA6A1C4913469B0013449B000B441B6866
:1059E000591C184813469B0013449B00034419603C
:1059F0003B6B9B6A002B0BD04FF0500383F3118855
:105A0000BFF36F8FBFF34F8F7B6100BF00BFFDE718
:105A10003B6BDA6A0C4B1B68DB6A9A4207D90B4B6B
:105A20004FF080521A60BFF34F8FBFF36F8FFAF7BA
:105A3000A9FC7B6B18463837BD4680BDD8210020B5
:105A4000DC210020041D0020001D002004ED00E0EA
:105A500080B592B000AFF860B9607A60FB70012346
:105A60007B64FB68002B0BD14FF0500383F311884C
:105A7000BFF36F8FBFF34F8FBB6200BF00BFFDE767
:105A8000BB68002B0BD04FF0500383F31188BFF39A
:105A90006F8FBFF34F8F7B6200BF00BFFDE7FAF748
:105AA000FFFCFB683B64EFF311824FF0500383F37C
:105AB0001188BFF36F8FBFF34F8F3A62FB613B6A70
:105AC000FB633B6D002B07D03A6CBB6814339B0023
:105AD00013445A683B6D1A603A6CBB6813445833E0
